{
  "_format": "hh-sol-artifact-1",
  "contractName": "EHR",
  "sourceName": "contracts/EHR.sol",
  "abi": [
    {
      "anonymous": false,
      "inputs": [
        {
          "indexed": true,
          "internalType": "address",
          "name": "patientAddress",
          "type": "address"
        },
        {
          "indexed": true,
          "internalType": "address",
          "name": "doctorAddress",
          "type": "address"
        }
      ],
      "name": "AccessGranted",
      "type": "event"
    },
    {
      "anonymous": false,
      "inputs": [
        {
          "indexed": true,
          "internalType": "address",
          "name": "patientAddress",
          "type": "address"
        },
        {
          "indexed": true,
          "internalType": "address",
          "name": "doctorAddress",
          "type": "address"
        }
      ],
      "name": "AccessRevoked",
      "type": "event"
    },
    {
      "anonymous": false,
      "inputs": [
        {
          "indexed": true,
          "internalType": "address",
          "name": "patientAddress",
          "type": "address"
        },
        {
          "indexed": true,
          "internalType": "address",
          "name": "doctorAddress",
          "type": "address"
        },
        {
          "indexed": false,
          "internalType": "address",
          "name": "sender",
          "type": "address"
        },
        {
          "indexed": false,
          "internalType": "string",
          "name": "ipfsHash",
          "type": "string"
        }
      ],
      "name": "ChatMessageSent",
      "type": "event"
    },
    {
      "anonymous": false,
      "inputs": [
        {
          "indexed": true,
          "internalType": "address",
          "name": "doctorAddress",
          "type": "address"
        }
      ],
      "name": "DoctorRegistered",
      "type": "event"
    },
    {
      "anonymous": false,
      "inputs": [
        {
          "indexed": true,
          "internalType": "address",
          "name": "labAddress",
          "type": "address"
        }
      ],
      "name": "LabRegistered",
      "type": "event"
    },
    {
      "anonymous": false,
      "inputs": [
        {
          "indexed": true,
          "internalType": "address",
          "name": "patient",
          "type": "address"
        },
        {
          "indexed": true,
          "internalType": "address",
          "name": "doctor",
          "type": "address"
        },
        {
          "indexed": true,
          "internalType": "address",
          "name": "lab",
          "type": "address"
        }
      ],
      "name": "LabRequestApproved",
      "type": "event"
    },
    {
      "anonymous": false,
      "inputs": [
        {
          "indexed": true,
          "internalType": "address",
          "name": "patient",
          "type": "address"
        },
        {
          "indexed": true,
          "internalType": "address",
          "name": "doctor",
          "type": "address"
        },
        {
          "indexed": true,
          "internalType": "address",
          "name": "lab",
          "type": "address"
        },
        {
          "indexed": false,
          "internalType": "string",
          "name": "reportIPFS",
          "type": "string"
        },
        {
          "indexed": false,
          "internalType": "string",
          "name": "testMessage",
          "type": "string"
        }
      ],
      "name": "LabRequested",
      "type": "event"
    },
    {
      "anonymous": false,
      "inputs": [
        {
          "indexed": true,
          "internalType": "address",
          "name": "patient",
          "type": "address"
        },
        {
          "indexed": true,
          "internalType": "address",
          "name": "lab",
          "type": "address"
        },
        {
          "indexed": false,
          "internalType": "string",
          "name": "reportIPFS",
          "type": "string"
        }
      ],
      "name": "LabResultAdded",
      "type": "event"
    },
    {
      "anonymous": false,
      "inputs": [
        {
          "indexed": true,
          "internalType": "address",
          "name": "patientAddress",
          "type": "address"
        },
        {
          "indexed": false,
          "internalType": "string",
          "name": "ipfsHash",
          "type": "string"
        }
      ],
      "name": "MedicalRecordAdded",
      "type": "event"
    },
    {
      "anonymous": false,
      "inputs": [
        {
          "indexed": true,
          "internalType": "address",
          "name": "patientAddress",
          "type": "address"
        }
      ],
      "name": "PatientRegistered",
      "type": "event"
    },
    {
      "inputs": [
        {
          "internalType": "address",
          "name": "patientAddress",
          "type": "address"
        },
        {
          "internalType": "string",
          "name": "ipfshash",
          "type": "string"
        }
      ],
      "name": "addMedicalRecord",
      "outputs": [],
      "stateMutability": "nonpayable",
      "type": "function"
    },
    {
      "inputs": [
        {
          "internalType": "uint256",
          "name": "requestIndex",
          "type": "uint256"
        }
      ],
      "name": "approveLabRequest",
      "outputs": [],
      "stateMutability": "nonpayable",
      "type": "function"
    },
    {
      "inputs": [
        {
          "internalType": "address",
          "name": "patientAddress",
          "type": "address"
        },
        {
          "internalType": "address",
          "name": "doctorAddress",
          "type": "address"
        }
      ],
      "name": "checkAccess",
      "outputs": [
        {
          "internalType": "bool",
          "name": "",
          "type": "bool"
        }
      ],
      "stateMutability": "view",
      "type": "function"
    },
    {
      "inputs": [],
      "name": "getAllDoctorAddresses",
      "outputs": [
        {
          "internalType": "address[]",
          "name": "",
          "type": "address[]"
        }
      ],
      "stateMutability": "view",
      "type": "function"
    },
    {
      "inputs": [],
      "name": "getAllLabAddresses",
      "outputs": [
        {
          "internalType": "address[]",
          "name": "",
          "type": "address[]"
        }
      ],
      "stateMutability": "view",
      "type": "function"
    },
    {
      "inputs": [],
      "name": "getAllPatientAddresses",
      "outputs": [
        {
          "internalType": "address[]",
          "name": "",
          "type": "address[]"
        }
      ],
      "stateMutability": "view",
      "type": "function"
    },
    {
      "inputs": [
        {
          "internalType": "address",
          "name": "patientAddress",
          "type": "address"
        }
      ],
      "name": "getAllowedDoctors",
      "outputs": [
        {
          "internalType": "address[]",
          "name": "",
          "type": "address[]"
        }
      ],
      "stateMutability": "view",
      "type": "function"
    },
    {
      "inputs": [
        {
          "internalType": "address",
          "name": "doctorAddress",
          "type": "address"
        }
      ],
      "name": "getChat",
      "outputs": [
        {
          "internalType": "string[]",
          "name": "",
          "type": "string[]"
        }
      ],
      "stateMutability": "view",
      "type": "function"
    },
    {
      "inputs": [
        {
          "internalType": "address",
          "name": "patientAddress",
          "type": "address"
        }
      ],
      "name": "getChatWithPatient",
      "outputs": [
        {
          "internalType": "string[]",
          "name": "",
          "type": "string[]"
        }
      ],
      "stateMutability": "view",
      "type": "function"
    },
    {
      "inputs": [
        {
          "internalType": "address",
          "name": "doctorAddress",
          "type": "address"
        }
      ],
      "name": "getDoctorData",
      "outputs": [
        {
          "internalType": "string",
          "name": "dataIPFShash",
          "type": "string"
        },
        {
          "internalType": "string",
          "name": "specialization",
          "type": "string"
        },
        {
          "internalType": "bool",
          "name": "exists",
          "type": "bool"
        }
      ],
      "stateMutability": "view",
      "type": "function"
    },
    {
      "inputs": [
        {
          "internalType": "address",
          "name": "doctorAddress",
          "type": "address"
        }
      ],
      "name": "getDoctorPatients",
      "outputs": [
        {
          "internalType": "address[]",
          "name": "",
          "type": "address[]"
        }
      ],
      "stateMutability": "view",
      "type": "function"
    },
    {
      "inputs": [
        {
          "internalType": "address",
          "name": "labAddress",
          "type": "address"
        }
      ],
      "name": "getLabData",
      "outputs": [
        {
          "internalType": "string",
          "name": "dataIPFShash",
          "type": "string"
        },
        {
          "internalType": "string",
          "name": "labName",
          "type": "string"
        },
        {
          "internalType": "bool",
          "name": "exists",
          "type": "bool"
        }
      ],
      "stateMutability": "view",
      "type": "function"
    },
    {
      "inputs": [
        {
          "internalType": "address",
          "name": "patientAddress",
          "type": "address"
        }
      ],
      "name": "getLabRequests",
      "outputs": [
        {
          "components": [
            {
              "internalType": "address",
              "name": "doctor",
              "type": "address"
            },
            {
              "internalType": "address",
              "name": "lab",
              "type": "address"
            },
            {
              "internalType": "string",
              "name": "reportIPFS",
              "type": "string"
            },
            {
              "internalType": "string",
              "name": "testMessage",
              "type": "string"
            },
            {
              "internalType": "bool",
              "name": "patientApproved",
              "type": "bool"
            },
            {
              "internalType": "bool",
              "name": "completed",
              "type": "bool"
            }
          ],
          "internalType": "struct EHR.LabRequest[]",
          "name": "",
          "type": "tuple[]"
        }
      ],
      "stateMutability": "view",
      "type": "function"
    },
    {
      "inputs": [
        {
          "internalType": "address",
          "name": "patientAddress",
          "type": "address"
        }
      ],
      "name": "getPatientData",
      "outputs": [
        {
          "internalType": "string",
          "name": "dataIPFShash",
          "type": "string"
        },
        {
          "internalType": "bool",
          "name": "exists",
          "type": "bool"
        }
      ],
      "stateMutability": "view",
      "type": "function"
    },
    {
      "inputs": [
        {
          "internalType": "address",
          "name": "patientAddress",
          "type": "address"
        }
      ],
      "name": "getPatientRecords",
      "outputs": [
        {
          "internalType": "string[]",
          "name": "",
          "type": "string[]"
        }
      ],
      "stateMutability": "view",
      "type": "function"
    },
    {
      "inputs": [
        {
          "internalType": "address",
          "name": "doctorAddress",
          "type": "address"
        }
      ],
      "name": "grantAccess",
      "outputs": [],
      "stateMutability": "nonpayable",
      "type": "function"
    },
    {
      "inputs": [
        {
          "internalType": "address",
          "name": "addr",
          "type": "address"
        }
      ],
      "name": "isDoctor",
      "outputs": [
        {
          "internalType": "bool",
          "name": "",
          "type": "bool"
        }
      ],
      "stateMutability": "view",
      "type": "function"
    },
    {
      "inputs": [
        {
          "internalType": "address",
          "name": "addr",
          "type": "address"
        }
      ],
      "name": "isLab",
      "outputs": [
        {
          "internalType": "bool",
          "name": "",
          "type": "bool"
        }
      ],
      "stateMutability": "view",
      "type": "function"
    },
    {
      "inputs": [
        {
          "internalType": "address",
          "name": "labAddress",
          "type": "address"
        }
      ],
      "name": "isLabRegistered",
      "outputs": [
        {
          "internalType": "bool",
          "name": "",
          "type": "bool"
        }
      ],
      "stateMutability": "view",
      "type": "function"
    },
    {
      "inputs": [
        {
          "internalType": "address",
          "name": "addr",
          "type": "address"
        }
      ],
      "name": "isPatient",
      "outputs": [
        {
          "internalType": "bool",
          "name": "",
          "type": "bool"
        }
      ],
      "stateMutability": "view",
      "type": "function"
    },
    {
      "inputs": [
        {
          "internalType": "string",
          "name": "_dataIPFShash",
          "type": "string"
        },
        {
          "internalType": "string",
          "name": "_specialization",
          "type": "string"
        }
      ],
      "name": "registerDoctor",
      "outputs": [],
      "stateMutability": "nonpayable",
      "type": "function"
    },
    {
      "inputs": [
        {
          "internalType": "string",
          "name": "_dataIPFShash",
          "type": "string"
        },
        {
          "internalType": "string",
          "name": "_labName",
          "type": "string"
        }
      ],
      "name": "registerLab",
      "outputs": [],
      "stateMutability": "nonpayable",
      "type": "function"
    },
    {
      "inputs": [
        {
          "internalType": "string",
          "name": "_dataIPFShash",
          "type": "string"
        }
      ],
      "name": "registerPatient",
      "outputs": [],
      "stateMutability": "nonpayable",
      "type": "function"
    },
    {
      "inputs": [
        {
          "internalType": "address",
          "name": "patientAddress",
          "type": "address"
        },
        {
          "internalType": "address",
          "name": "labAddress",
          "type": "address"
        },
        {
          "internalType": "string",
          "name": "reportIPFS",
          "type": "string"
        },
        {
          "internalType": "string",
          "name": "testMessage",
          "type": "string"
        }
      ],
      "name": "requestLabTest",
      "outputs": [],
      "stateMutability": "nonpayable",
      "type": "function"
    },
    {
      "inputs": [
        {
          "internalType": "address",
          "name": "doctorAddress",
          "type": "address"
        }
      ],
      "name": "revokeAccess",
      "outputs": [],
      "stateMutability": "nonpayable",
      "type": "function"
    },
    {
      "inputs": [
        {
          "internalType": "address",
          "name": "doctorAddress",
          "type": "address"
        },
        {
          "internalType": "string",
          "name": "ipfsHash",
          "type": "string"
        }
      ],
      "name": "sendMessageToDoctor",
      "outputs": [],
      "stateMutability": "nonpayable",
      "type": "function"
    },
    {
      "inputs": [
        {
          "internalType": "address",
          "name": "patientAddress",
          "type": "address"
        },
        {
          "internalType": "string",
          "name": "ipfsHash",
          "type": "string"
        }
      ],
      "name": "sendMessageToPatient",
      "outputs": [],
      "stateMutability": "nonpayable",
      "type": "function"
    },
    {
      "inputs": [
        {
          "internalType": "address",
          "name": "patientAddress",
          "type": "address"
        },
        {
          "internalType": "uint256",
          "name": "requestIndex",
          "type": "uint256"
        },
        {
          "internalType": "string",
          "name": "resultIPFS",
          "type": "string"
        }
      ],
      "name": "uploadLabResult",
      "outputs": [],
      "stateMutability": "nonpayable",
      "type": "function"
    }
  ],
  "bytecode": "0x6080604052348015600f57600080fd5b50615dbd8061001f6000396000f3fe608060405234801561001057600080fd5b50600436106101c45760003560e01c8063833b46bb116100f9578063996440c611610097578063e4b3295511610071578063e4b3295514610574578063f20648db146105a6578063f96906aa146105c2578063fb82cef7146105de576101c4565b8063996440c6146104e4578063ba50846714610514578063e01aaf7e14610544576101c4565b806388184a64116100d357806388184a64146104365780638b9cb537146104665780638f9c79ed1461049657806392be3e65146104c6576101c4565b8063833b46bb146103e257806385e68531146103fe578063869c9eaf1461041a576101c4565b80632efcb62f11610166578063587fb7a311610140578063587fb7a3146103345780635e390880146103525780635f7b8ea81461038257806362e1f745146103b2576101c4565b80632efcb62f146102b75780633a9b131c146102e757806348e8185214610303576101c4565b806318bd4847116101a257806318bd48471461021d578063268e4ddb1461024d5780632ca662c7146102695780632e8ff13c14610285576101c4565b80630ae5e739146101c95780630eeea7ba146101e5578063145187a914610201575b600080fd5b6101e360048036038101906101de919061457a565b6105fc565b005b6101ff60048036038101906101fa91906146ed565b6109d1565b005b61021b600480360381019061021691906147c2565b610e91565b005b6102376004803603810190610232919061457a565b61119c565b6040516102449190614930565b60405180910390f35b61026760048036038101906102629190614952565b61144a565b005b610283600480360381019061027e91906149ae565b6116be565b005b61029f600480360381019061029a919061457a565b61187d565b6040516102ae93929190614a8b565b60405180910390f35b6102d160048036038101906102cc919061457a565b611a94565b6040516102de9190614930565b60405180910390f35b61030160048036038101906102fc9190614952565b611d43565b005b61031d6004803603810190610318919061457a565b611f9d565b60405161032b929190614ad0565b60405180910390f35b61033c612221565b6040516103499190614bbe565b60405180910390f35b61036c6004803603810190610367919061457a565b6122af565b6040516103799190614be0565b60405180910390f35b61039c6004803603810190610397919061457a565b612308565b6040516103a99190614bbe565b60405180910390f35b6103cc60048036038101906103c79190614bfb565b612779565b6040516103d99190614be0565b60405180910390f35b6103fc60048036038101906103f791906149ae565b61292e565b005b6104186004803603810190610413919061457a565b612b46565b005b610434600480360381019061042f9190614c3b565b6130e7565b005b610450600480360381019061044b919061457a565b6132ec565b60405161045d9190614930565b60405180910390f35b610480600480360381019061047b919061457a565b61359b565b60405161048d9190614be0565b60405180910390f35b6104b060048036038101906104ab919061457a565b6135f4565b6040516104bd9190614be0565b60405180910390f35b6104ce61364d565b6040516104db9190614bbe565b60405180910390f35b6104fe60048036038101906104f9919061457a565b6136db565b60405161050b9190614be0565b60405180910390f35b61052e6004803603810190610529919061457a565b613734565b60405161053b9190614bbe565b60405180910390f35b61055e6004803603810190610559919061457a565b613901565b60405161056b9190614de5565b60405180910390f35b61058e6004803603810190610589919061457a565b613ba5565b60405161059d93929190614a8b565b60405180910390f35b6105c060048036038101906105bb9190614952565b613dbc565b005b6105dc60048036038101906105d79190614e07565b614030565b005b6105e66143d8565b6040516105f39190614bbe565b60405180910390f35b600160003373ffffffffffffffffffffffffffffffffffffffff1673ffffffffffffffffffffffffffffffffffffffff16815260200190815260200160002060040160009054906101000a900460ff1661068b576040517f08c379a000000000000000000000000000000000000000000000000000000000815260040161068290614ec2565b60405180910390fd5b600260008273ffffffffffffffffffffffffffffffffffffffff1673ffffffffffffffffffffffffffffffffffffffff16815260200190815260200160002060030160009054906101000a900460ff1661071a576040517f08c379a000000000000000000000000000000000000000000000000000000000815260040161071190614f2e565b60405180910390fd5b60018060003373ffffffffffffffffffffffffffffffffffffffff1673ffffffffffffffffffffffffffffffffffffffff16815260200190815260200160002060020160008373ffffffffffffffffffffffffffffffffffffffff1673ffffffffffffffffffffffffffffffffffffffff16815260200190815260200160002060006101000a81548160ff0219169083151502179055506000805b600260008473ffffffffffffffffffffffffffffffffffffffff1673ffffffffffffffffffffffffffffffffffffffff168152602001908152602001600020600201805490508110156108c9573373ffffffffffffffffffffffffffffffffffffffff16600260008573ffffffffffffffffffffffffffffffffffffffff1673ffffffffffffffffffffffffffffffffffffffff168152602001908152602001600020600201828154811061086d5761086c614f4e565b5b9060005260206000200160009054906101000a900473ffffffffffffffffffffffffffffffffffffffff1673ffffffffffffffffffffffffffffffffffffffff16036108bc57600191506108c9565b80806001019150506107b5565b508061097357600260008373ffffffffffffffffffffffffffffffffffffffff1673ffffffffffffffffffffffffffffffffffffffff168152602001908152602001600020600201339080600181540180825580915050600190039060005260206000200160009091909190916101000a81548173ffffffffffffffffffffffffffffffffffffffff021916908373ffffffffffffffffffffffffffffffffffffffff1602179055505b8173ffffffffffffffffffffffffffffffffffffffff163373ffffffffffffffffffffffffffffffffffffffff167f9f520b3bfc56d06f7065d10b4683b3f57ac8895d5026cd176dee95ce1454cb8d60405160405180910390a35050565b600260003373ffffffffffffffffffffffffffffffffffffffff1673ffffffffffffffffffffffffffffffffffffffff16815260200190815260200160002060030160009054906101000a900460ff16610a60576040517f08c379a0000000000000000000000000000000000000000000000000000000008152600401610a5790614fc9565b60405180910390fd5b600160008573ffffffffffffffffffffffffffffffffffffffff1673ffffffffffffffffffffffffffffffffffffffff16815260200190815260200160002060040160009054906101000a900460ff16610aef576040517f08c379a0000000000000000000000000000000000000000000000000000000008152600401610ae690615035565b60405180910390fd5b600160008573ffffffffffffffffffffffffffffffffffffffff1673ffffffffffffffffffffffffffffffffffffffff16815260200190815260200160002060020160003373ffffffffffffffffffffffffffffffffffffffff1673ffffffffffffffffffffffffffffffffffffffff16815260200190815260200160002060009054906101000a900460ff16610bbb576040517f08c379a0000000000000000000000000000000000000000000000000000000008152600401610bb2906150a1565b60405180910390fd5b600360008473ffffffffffffffffffffffffffffffffffffffff1673ffffffffffffffffffffffffffffffffffffffff16815260200190815260200160002060020160009054906101000a900460ff16610c4a576040517f08c379a0000000000000000000000000000000000000000000000000000000008152600401610c419061510d565b60405180910390fd5b600460008573ffffffffffffffffffffffffffffffffffffffff1673ffffffffffffffffffffffffffffffffffffffff1681526020019081526020016000206040518060c001604052803373ffffffffffffffffffffffffffffffffffffffff1681526020018573ffffffffffffffffffffffffffffffffffffffff16815260200184815260200183815260200160001515815260200160001515815250908060018154018082558091505060019003906000526020600020906005020160009091909190915060008201518160000160006101000a81548173ffffffffffffffffffffffffffffffffffffffff021916908373ffffffffffffffffffffffffffffffffffffffff16021790555060208201518160010160006101000a81548173ffffffffffffffffffffffffffffffffffffffff021916908373ffffffffffffffffffffffffffffffffffffffff1602179055506040820151816002019081610db49190615339565b506060820151816003019081610dca9190615339565b5060808201518160040160006101000a81548160ff02191690831515021790555060a08201518160040160016101000a81548160ff02191690831515021790555050508273ffffffffffffffffffffffffffffffffffffffff163373ffffffffffffffffffffffffffffffffffffffff168573ffffffffffffffffffffffffffffffffffffffff167fd00b0ee547770018687d791d4f10899eaab19f150bdf76b81fb65e9e33674f368585604051610e8392919061540b565b60405180910390a450505050565b600160003373ffffffffffffffffffffffffffffffffffffffff1673ffffffffffffffffffffffffffffffffffffffff16815260200190815260200160002060040160009054906101000a900460ff16610f20576040517f08c379a0000000000000000000000000000000000000000000000000000000008152600401610f1790614ec2565b60405180910390fd5b600460003373ffffffffffffffffffffffffffffffffffffffff1673ffffffffffffffffffffffffffffffffffffffff168152602001908152602001600020805490508110610fa4576040517f08c379a0000000000000000000000000000000000000000000000000000000008152600401610f9b9061548e565b60405180910390fd5b6000600460003373ffffffffffffffffffffffffffffffffffffffff1673ffffffffffffffffffffffffffffffffffffffff1681526020019081526020016000208281548110610ff757610ff6614f4e565b5b9060005260206000209060050201905060018160040160006101000a81548160ff02191690831515021790555060018060003373ffffffffffffffffffffffffffffffffffffffff1673ffffffffffffffffffffffffffffffffffffffff16815260200190815260200160002060030160008360010160009054906101000a900473ffffffffffffffffffffffffffffffffffffffff1673ffffffffffffffffffffffffffffffffffffffff1673ffffffffffffffffffffffffffffffffffffffff16815260200190815260200160002060006101000a81548160ff0219169083151502179055508060010160009054906101000a900473ffffffffffffffffffffffffffffffffffffffff1673ffffffffffffffffffffffffffffffffffffffff168160000160009054906101000a900473ffffffffffffffffffffffffffffffffffffffff1673ffffffffffffffffffffffffffffffffffffffff163373ffffffffffffffffffffffffffffffffffffffff167fcf65866f7739ea041a803858ea8798cd9f7bb2048f74314b0a0a7c7848ce811b60405160405180910390a45050565b6060818073ffffffffffffffffffffffffffffffffffffffff163373ffffffffffffffffffffffffffffffffffffffff1614806112625750600160008273ffffffffffffffffffffffffffffffffffffffff1673ffffffffffffffffffffffffffffffffffffffff16815260200190815260200160002060020160003373ffffffffffffffffffffffffffffffffffffffff1673ffffffffffffffffffffffffffffffffffffffff16815260200190815260200160002060009054906101000a900460ff165b6112a1576040517f08c379a000000000000000000000000000000000000000000000000000000000815260040161129890615520565b60405180910390fd5b600160008473ffffffffffffffffffffffffffffffffffffffff1673ffffffffffffffffffffffffffffffffffffffff16815260200190815260200160002060040160009054906101000a900460ff16611330576040517f08c379a00000000000000000000000000000000000000000000000000000000081526004016113279061558c565b60405180910390fd5b600160008473ffffffffffffffffffffffffffffffffffffffff1673ffffffffffffffffffffffffffffffffffffffff168152602001908152602001600020600101805480602002602001604051908101604052809291908181526020016000905b8282101561143e5783829060005260206000200180546113b19061515c565b80601f01602080910402602001604051908101604052809291908181526020018280546113dd9061515c565b801561142a5780601f106113ff5761010080835404028352916020019161142a565b820191906000526020600020905b81548152906001019060200180831161140d57829003601f168201915b505050505081526020019060010190611392565b50505050915050919050565b600160003373ffffffffffffffffffffffffffffffffffffffff1673ffffffffffffffffffffffffffffffffffffffff16815260200190815260200160002060040160009054906101000a900460ff166114d9576040517f08c379a00000000000000000000000000000000000000000000000000000000081526004016114d090614ec2565b60405180910390fd5b600160003373ffffffffffffffffffffffffffffffffffffffff1673ffffffffffffffffffffffffffffffffffffffff16815260200190815260200160002060020160008373ffffffffffffffffffffffffffffffffffffffff1673ffffffffffffffffffffffffffffffffffffffff16815260200190815260200160002060009054906101000a900460ff166115a5576040517f08c379a000000000000000000000000000000000000000000000000000000000815260040161159c906155f8565b60405180910390fd5b6000803373ffffffffffffffffffffffffffffffffffffffff1673ffffffffffffffffffffffffffffffffffffffff16815260200190815260200160002060008373ffffffffffffffffffffffffffffffffffffffff1673ffffffffffffffffffffffffffffffffffffffff168152602001908152602001600020819080600181540180825580915050600190039060005260206000200160009091909190915090816116529190615339565b508173ffffffffffffffffffffffffffffffffffffffff163373ffffffffffffffffffffffffffffffffffffffff167fd42533516035ff61eeff65eacd819a258171887c53829d4aa3ea5a52d021c04133846040516116b2929190615627565b60405180910390a35050565b600360003373ffffffffffffffffffffffffffffffffffffffff1673ffffffffffffffffffffffffffffffffffffffff16815260200190815260200160002060020160009054906101000a900460ff161561174e576040517f08c379a0000000000000000000000000000000000000000000000000000000008152600401611745906156a3565b60405180910390fd5b6000600360003373ffffffffffffffffffffffffffffffffffffffff1673ffffffffffffffffffffffffffffffffffffffff1681526020019081526020016000209050828160000190816117a29190615339565b50818160010190816117b49190615339565b5060018160020160006101000a81548160ff0219169083151502179055506007339080600181540180825580915050600190039060005260206000200160009091909190916101000a81548173ffffffffffffffffffffffffffffffffffffffff021916908373ffffffffffffffffffffffffffffffffffffffff1602179055503373ffffffffffffffffffffffffffffffffffffffff167f9655eb0d5b8ee39174a9558f17a200ad668397528296feff485c06541672162860405160405180910390a2505050565b6060806000600260008573ffffffffffffffffffffffffffffffffffffffff1673ffffffffffffffffffffffffffffffffffffffff16815260200190815260200160002060030160009054906101000a900460ff16611911576040517f08c379a00000000000000000000000000000000000000000000000000000000081526004016119089061570f565b60405180910390fd5b6000600260008673ffffffffffffffffffffffffffffffffffffffff1673ffffffffffffffffffffffffffffffffffffffff168152602001908152602001600020905080600001816001018260030160009054906101000a900460ff1682805461197a9061515c565b80601f01602080910402602001604051908101604052809291908181526020018280546119a69061515c565b80156119f35780601f106119c8576101008083540402835291602001916119f3565b820191906000526020600020905b8154815290600101906020018083116119d657829003601f168201915b50505050509250818054611a069061515c565b80601f0160208091040260200160405190810160405280929190818152602001828054611a329061515c565b8015611a7f5780601f10611a5457610100808354040283529160200191611a7f565b820191906000526020600020905b815481529060010190602001808311611a6257829003601f168201915b50505050509150935093509350509193909250565b6060600160003373ffffffffffffffffffffffffffffffffffffffff1673ffffffffffffffffffffffffffffffffffffffff16815260200190815260200160002060040160009054906101000a900460ff16611b25576040517f08c379a0000000000000000000000000000000000000000000000000000000008152600401611b1c90614ec2565b60405180910390fd5b600160003373ffffffffffffffffffffffffffffffffffffffff1673ffffffffffffffffffffffffffffffffffffffff16815260200190815260200160002060020160008373ffffffffffffffffffffffffffffffffffffffff1673ffffffffffffffffffffffffffffffffffffffff16815260200190815260200160002060009054906101000a900460ff16611bf1576040517f08c379a0000000000000000000000000000000000000000000000000000000008152600401611be8906155f8565b60405180910390fd5b6000803373ffffffffffffffffffffffffffffffffffffffff1673ffffffffffffffffffffffffffffffffffffffff16815260200190815260200160002060008373ffffffffffffffffffffffffffffffffffffffff1673ffffffffffffffffffffffffffffffffffffffff168152602001908152602001600020805480602002602001604051908101604052809291908181526020016000905b82821015611d38578382906000526020600020018054611cab9061515c565b80601f0160208091040260200160405190810160405280929190818152602001828054611cd79061515c565b8015611d245780601f10611cf957610100808354040283529160200191611d24565b820191906000526020600020905b815481529060010190602001808311611d0757829003601f168201915b505050505081526020019060010190611c8c565b505050509050919050565b818073ffffffffffffffffffffffffffffffffffffffff163373ffffffffffffffffffffffffffffffffffffffff161480611e075750600160008273ffffffffffffffffffffffffffffffffffffffff1673ffffffffffffffffffffffffffffffffffffffff16815260200190815260200160002060020160003373ffffffffffffffffffffffffffffffffffffffff1673ffffffffffffffffffffffffffffffffffffffff16815260200190815260200160002060009054906101000a900460ff165b611e46576040517f08c379a0000000000000000000000000000000000000000000000000000000008152600401611e3d90615520565b60405180910390fd5b600160008473ffffffffffffffffffffffffffffffffffffffff1673ffffffffffffffffffffffffffffffffffffffff16815260200190815260200160002060040160009054906101000a900460ff16611ed5576040517f08c379a0000000000000000000000000000000000000000000000000000000008152600401611ecc9061558c565b60405180910390fd5b600160008473ffffffffffffffffffffffffffffffffffffffff1673ffffffffffffffffffffffffffffffffffffffff16815260200190815260200160002060010182908060018154018082558091505060019003906000526020600020016000909190919091509081611f499190615339565b508273ffffffffffffffffffffffffffffffffffffffff167f381664328a13775cdca4159b54873d48827358a58c62dac10944c743ecb7ad9b83604051611f90919061572f565b60405180910390a2505050565b60606000600160008473ffffffffffffffffffffffffffffffffffffffff1673ffffffffffffffffffffffffffffffffffffffff16815260200190815260200160002060040160009054906101000a900460ff16612030576040517f08c379a00000000000000000000000000000000000000000000000000000000081526004016120279061579d565b60405180910390fd5b8273ffffffffffffffffffffffffffffffffffffffff163373ffffffffffffffffffffffffffffffffffffffff1614806120f35750600160008473ffffffffffffffffffffffffffffffffffffffff1673ffffffffffffffffffffffffffffffffffffffff16815260200190815260200160002060020160003373ffffffffffffffffffffffffffffffffffffffff1673ffffffffffffffffffffffffffffffffffffffff16815260200190815260200160002060009054906101000a900460ff165b612132576040517f08c379a00000000000000000000000000000000000000000000000000000000081526004016121299061582f565b60405180910390fd5b6000600160008573ffffffffffffffffffffffffffffffffffffffff1673ffffffffffffffffffffffffffffffffffffffff1681526020019081526020016000209050806000018160040160009054906101000a900460ff168180546121979061515c565b80601f01602080910402602001604051908101604052809291908181526020018280546121c39061515c565b80156122105780601f106121e557610100808354040283529160200191612210565b820191906000526020600020905b8154815290600101906020018083116121f357829003601f168201915b505050505091509250925050915091565b606060068054806020026020016040519081016040528092919081815260200182805480156122a557602002820191906000526020600020905b8160009054906101000a900473ffffffffffffffffffffffffffffffffffffffff1673ffffffffffffffffffffffffffffffffffffffff168152602001906001019080831161225b575b5050505050905090565b6000600360008373ffffffffffffffffffffffffffffffffffffffff1673ffffffffffffffffffffffffffffffffffffffff16815260200190815260200160002060020160009054906101000a900460ff169050919050565b6060600160008373ffffffffffffffffffffffffffffffffffffffff1673ffffffffffffffffffffffffffffffffffffffff16815260200190815260200160002060040160009054906101000a900460ff16612399576040517f08c379a00000000000000000000000000000000000000000000000000000000081526004016123909061558c565b60405180910390fd5b8173ffffffffffffffffffffffffffffffffffffffff163373ffffffffffffffffffffffffffffffffffffffff16148061245c5750600160008373ffffffffffffffffffffffffffffffffffffffff1673ffffffffffffffffffffffffffffffffffffffff16815260200190815260200160002060020160003373ffffffffffffffffffffffffffffffffffffffff1673ffffffffffffffffffffffffffffffffffffffff16815260200190815260200160002060009054906101000a900460ff165b61249b576040517f08c379a00000000000000000000000000000000000000000000000000000000081526004016124929061589b565b60405180910390fd5b6000805b60068054905081101561259857600160008573ffffffffffffffffffffffffffffffffffffffff1673ffffffffffffffffffffffffffffffffffffffff16815260200190815260200160002060020160006006838154811061250457612503614f4e565b5b9060005260206000200160009054906101000a900473ffffffffffffffffffffffffffffffffffffffff1673ffffffffffffffffffffffffffffffffffffffff1673ffffffffffffffffffffffffffffffffffffffff16815260200190815260200160002060009054906101000a900460ff161561258b578180612587906158ea565b9250505b808060010191505061249f565b5060008167ffffffffffffffff8111156125b5576125b46145c2565b5b6040519080825280602002602001820160405280156125e35781602001602082028036833780820191505090505b5090506000805b60068054905081101561276d57600160008773ffffffffffffffffffffffffffffffffffffffff1673ffffffffffffffffffffffffffffffffffffffff16815260200190815260200160002060020160006006838154811061264f5761264e614f4e565b5b9060005260206000200160009054906101000a900473ffffffffffffffffffffffffffffffffffffffff1673ffffffffffffffffffffffffffffffffffffffff1673ffffffffffffffffffffffffffffffffffffffff16815260200190815260200160002060009054906101000a900460ff161561276057600681815481106126db576126da614f4e565b5b9060005260206000200160009054906101000a900473ffffffffffffffffffffffffffffffffffffffff16838380612712906158ea565b94508151811061272557612724614f4e565b5b602002602001019073ffffffffffffffffffffffffffffffffffffffff16908173ffffffffffffffffffffffffffffffffffffffff16815250505b80806001019150506125ea565b50819350505050919050565b6000600160008473ffffffffffffffffffffffffffffffffffffffff1673ffffffffffffffffffffffffffffffffffffffff16815260200190815260200160002060040160009054906101000a900460ff1661280a576040517f08c379a00000000000000000000000000000000000000000000000000000000081526004016128019061558c565b60405180910390fd5b600260008373ffffffffffffffffffffffffffffffffffffffff1673ffffffffffffffffffffffffffffffffffffffff16815260200190815260200160002060030160009054906101000a900460ff16612899576040517f08c379a00000000000000000000000000000000000000000000000000000000081526004016128909061597e565b60405180910390fd5b600160008473ffffffffffffffffffffffffffffffffffffffff1673ffffffffffffffffffffffffffffffffffffffff16815260200190815260200160002060020160008373ffffffffffffffffffffffffffffffffffffffff1673ffffffffffffffffffffffffffffffffffffffff16815260200190815260200160002060009054906101000a900460ff16905092915050565b600260003373ffffffffffffffffffffffffffffffffffffffff1673ffffffffffffffffffffffffffffffffffffffff16815260200190815260200160002060030160009054906101000a900460ff161580156129d85750600160003373ffffffffffffffffffffffffffffffffffffffff1673ffffffffffffffffffffffffffffffffffffffff16815260200190815260200160002060040160009054906101000a900460ff16155b612a17576040517f08c379a0000000000000000000000000000000000000000000000000000000008152600401612a0e906159ea565b60405180910390fd5b6000600260003373ffffffffffffffffffffffffffffffffffffffff1673ffffffffffffffffffffffffffffffffffffffff168152602001908152602001600020905082816000019081612a6b9190615339565b5081816001019081612a7d9190615339565b5060018160030160006101000a81548160ff0219169083151502179055506006339080600181540180825580915050600190039060005260206000200160009091909190916101000a81548173ffffffffffffffffffffffffffffffffffffffff021916908373ffffffffffffffffffffffffffffffffffffffff1602179055503373ffffffffffffffffffffffffffffffffffffffff167f2dc8105a7545248d0e354c4c6b02fb583071cc719fb4bef1ca74d72d475570bc60405160405180910390a2505050565b600160003373ffffffffffffffffffffffffffffffffffffffff1673ffffffffffffffffffffffffffffffffffffffff16815260200190815260200160002060040160009054906101000a900460ff16612bd5576040517f08c379a0000000000000000000000000000000000000000000000000000000008152600401612bcc90614ec2565b60405180910390fd5b600260008273ffffffffffffffffffffffffffffffffffffffff1673ffffffffffffffffffffffffffffffffffffffff16815260200190815260200160002060030160009054906101000a900460ff16612c64576040517f08c379a0000000000000000000000000000000000000000000000000000000008152600401612c5b90614f2e565b60405180910390fd5b6000600160003373ffffffffffffffffffffffffffffffffffffffff1673ffffffffffffffffffffffffffffffffffffffff16815260200190815260200160002060020160008373ffffffffffffffffffffffffffffffffffffffff1673ffffffffffffffffffffffffffffffffffffffff16815260200190815260200160002060006101000a81548160ff02191690831515021790555060005b600260008373ffffffffffffffffffffffffffffffffffffffff1673ffffffffffffffffffffffffffffffffffffffff16815260200190815260200160002060020180549050811015613002573373ffffffffffffffffffffffffffffffffffffffff16600260008473ffffffffffffffffffffffffffffffffffffffff1673ffffffffffffffffffffffffffffffffffffffff1681526020019081526020016000206002018281548110612db757612db6614f4e565b5b9060005260206000200160009054906101000a900473ffffffffffffffffffffffffffffffffffffffff1673ffffffffffffffffffffffffffffffffffffffff1603612ff557600260008373ffffffffffffffffffffffffffffffffffffffff1673ffffffffffffffffffffffffffffffffffffffff1681526020019081526020016000206002016001600260008573ffffffffffffffffffffffffffffffffffffffff1673ffffffffffffffffffffffffffffffffffffffff16815260200190815260200160002060020180549050612e919190615a0a565b81548110612ea257612ea1614f4e565b5b9060005260206000200160009054906101000a900473ffffffffffffffffffffffffffffffffffffffff16600260008473ffffffffffffffffffffffffffffffffffffffff1673ffffffffffffffffffffffffffffffffffffffff1681526020019081526020016000206002018281548110612f2157612f20614f4e565b5b9060005260206000200160006101000a81548173ffffffffffffffffffffffffffffffffffffffff021916908373ffffffffffffffffffffffffffffffffffffffff160217905550600260008373ffffffffffffffffffffffffffffffffffffffff1673ffffffffffffffffffffffffffffffffffffffff168152602001908152602001600020600201805480612fbb57612fba615a3e565b5b6001900381819060005260206000200160006101000a81549073ffffffffffffffffffffffffffffffffffffffff02191690559055613002565b8080600101915050612cff565b506000803373ffffffffffffffffffffffffffffffffffffffff1673ffffffffffffffffffffffffffffffffffffffff16815260200190815260200160002060008273ffffffffffffffffffffffffffffffffffffffff1673ffffffffffffffffffffffffffffffffffffffff168152602001908152602001600020600061308a9190614466565b8073ffffffffffffffffffffffffffffffffffffffff163373ffffffffffffffffffffffffffffffffffffffff167f825c8be24eb0df19500f63e86c29e7d0d951e73056b889b891d85e40938d9b6e60405160405180910390a350565b600160003373ffffffffffffffffffffffffffffffffffffffff1673ffffffffffffffffffffffffffffffffffffffff16815260200190815260200160002060040160009054906101000a900460ff161580156131915750600260003373ffffffffffffffffffffffffffffffffffffffff1673ffffffffffffffffffffffffffffffffffffffff16815260200190815260200160002060030160009054906101000a900460ff16155b6131d0576040517f08c379a00000000000000000000000000000000000000000000000000000000081526004016131c7906159ea565b60405180910390fd5b6000600160003373ffffffffffffffffffffffffffffffffffffffff1673ffffffffffffffffffffffffffffffffffffffff1681526020019081526020016000209050818160000190816132249190615339565b5060018160040160006101000a81548160ff0219169083151502179055506005339080600181540180825580915050600190039060005260206000200160009091909190916101000a81548173ffffffffffffffffffffffffffffffffffffffff021916908373ffffffffffffffffffffffffffffffffffffffff1602179055503373ffffffffffffffffffffffffffffffffffffffff167fc9fa2003fca4ce0dfc8cb0deae32266b715536df6685365b05b5be96ede8e49c60405160405180910390a25050565b6060600260003373ffffffffffffffffffffffffffffffffffffffff1673ffffffffffffffffffffffffffffffffffffffff16815260200190815260200160002060030160009054906101000a900460ff1661337d576040517f08c379a000000000000000000000000000000000000000000000000000000000815260040161337490614fc9565b60405180910390fd5b600160008373ffffffffffffffffffffffffffffffffffffffff1673ffffffffffffffffffffffffffffffffffffffff16815260200190815260200160002060020160003373ffffffffffffffffffffffffffffffffffffffff1673ffffffffffffffffffffffffffffffffffffffff16815260200190815260200160002060009054906101000a900460ff16613449576040517f08c379a0000000000000000000000000000000000000000000000000000000008152600401613440906155f8565b60405180910390fd5b6000808373ffffffffffffffffffffffffffffffffffffffff1673ffffffffffffffffffffffffffffffffffffffff16815260200190815260200160002060003373ffffffffffffffffffffffffffffffffffffffff1673ffffffffffffffffffffffffffffffffffffffff168152602001908152602001600020805480602002602001604051908101604052809291908181526020016000905b828210156135905783829060005260206000200180546135039061515c565b80601f016020809104026020016040519081016040528092919081815260200182805461352f9061515c565b801561357c5780601f106135515761010080835404028352916020019161357c565b820191906000526020600020905b81548152906001019060200180831161355f57829003601f168201915b5050505050815260200190600101906134e4565b505050509050919050565b6000600360008373ffffffffffffffffffffffffffffffffffffffff1673ffffffffffffffffffffffffffffffffffffffff16815260200190815260200160002060020160009054906101000a900460ff169050919050565b6000600160008373ffffffffffffffffffffffffffffffffffffffff1673ffffffffffffffffffffffffffffffffffffffff16815260200190815260200160002060040160009054906101000a900460ff169050919050565b606060058054806020026020016040519081016040528092919081815260200182805480156136d157602002820191906000526020600020905b8160009054906101000a900473ffffffffffffffffffffffffffffffffffffffff1673ffffffffffffffffffffffffffffffffffffffff1681526020019060010190808311613687575b5050505050905090565b6000600260008373ffffffffffffffffffffffffffffffffffffffff1673ffffffffffffffffffffffffffffffffffffffff16815260200190815260200160002060030160009054906101000a900460ff169050919050565b6060600260008373ffffffffffffffffffffffffffffffffffffffff1673ffffffffffffffffffffffffffffffffffffffff16815260200190815260200160002060030160009054906101000a900460ff166137c5576040517f08c379a00000000000000000000000000000000000000000000000000000000081526004016137bc9061570f565b60405180910390fd5b8173ffffffffffffffffffffffffffffffffffffffff163373ffffffffffffffffffffffffffffffffffffffff1614613833576040517f08c379a000000000000000000000000000000000000000000000000000000000815260040161382a90615adf565b60405180910390fd5b600260008373ffffffffffffffffffffffffffffffffffffffff1673ffffffffffffffffffffffffffffffffffffffff1681526020019081526020016000206002018054806020026020016040519081016040528092919081815260200182805480156138f557602002820191906000526020600020905b8160009054906101000a900473ffffffffffffffffffffffffffffffffffffffff1673ffffffffffffffffffffffffffffffffffffffff16815260200190600101908083116138ab575b50505050509050919050565b6060600460008373ffffffffffffffffffffffffffffffffffffffff1673ffffffffffffffffffffffffffffffffffffffff168152602001908152602001600020805480602002602001604051908101604052809291908181526020016000905b82821015613b9a57838290600052602060002090600502016040518060c00160405290816000820160009054906101000a900473ffffffffffffffffffffffffffffffffffffffff1673ffffffffffffffffffffffffffffffffffffffff1673ffffffffffffffffffffffffffffffffffffffff1681526020016001820160009054906101000a900473ffffffffffffffffffffffffffffffffffffffff1673ffffffffffffffffffffffffffffffffffffffff1673ffffffffffffffffffffffffffffffffffffffff168152602001600282018054613a419061515c565b80601f0160208091040260200160405190810160405280929190818152602001828054613a6d9061515c565b8015613aba5780601f10613a8f57610100808354040283529160200191613aba565b820191906000526020600020905b815481529060010190602001808311613a9d57829003601f168201915b50505050508152602001600382018054613ad39061515c565b80601f0160208091040260200160405190810160405280929190818152602001828054613aff9061515c565b8015613b4c5780601f10613b2157610100808354040283529160200191613b4c565b820191906000526020600020905b815481529060010190602001808311613b2f57829003601f168201915b505050505081526020016004820160009054906101000a900460ff161515151581526020016004820160019054906101000a900460ff16151515158152505081526020019060010190613962565b505050509050919050565b6060806000600360008573ffffffffffffffffffffffffffffffffffffffff1673ffffffffffffffffffffffffffffffffffffffff16815260200190815260200160002060020160009054906101000a900460ff16613c39576040517f08c379a0000000000000000000000000000000000000000000000000000000008152600401613c3090615b4b565b60405180910390fd5b6000600360008673ffffffffffffffffffffffffffffffffffffffff1673ffffffffffffffffffffffffffffffffffffffff168152602001908152602001600020905080600001816001018260020160009054906101000a900460ff16828054613ca29061515c565b80601f0160208091040260200160405190810160405280929190818152602001828054613cce9061515c565b8015613d1b5780601f10613cf057610100808354040283529160200191613d1b565b820191906000526020600020905b815481529060010190602001808311613cfe57829003601f168201915b50505050509250818054613d2e9061515c565b80601f0160208091040260200160405190810160405280929190818152602001828054613d5a9061515c565b8015613da75780601f10613d7c57610100808354040283529160200191613da7565b820191906000526020600020905b815481529060010190602001808311613d8a57829003601f168201915b50505050509150935093509350509193909250565b600260003373ffffffffffffffffffffffffffffffffffffffff1673ffffffffffffffffffffffffffffffffffffffff16815260200190815260200160002060030160009054906101000a900460ff16613e4b576040517f08c379a0000000000000000000000000000000000000000000000000000000008152600401613e4290614fc9565b60405180910390fd5b600160008373ffffffffffffffffffffffffffffffffffffffff1673ffffffffffffffffffffffffffffffffffffffff16815260200190815260200160002060020160003373ffffffffffffffffffffffffffffffffffffffff1673ffffffffffffffffffffffffffffffffffffffff16815260200190815260200160002060009054906101000a900460ff16613f17576040517f08c379a0000000000000000000000000000000000000000000000000000000008152600401613f0e90615bb7565b60405180910390fd5b6000808373ffffffffffffffffffffffffffffffffffffffff1673ffffffffffffffffffffffffffffffffffffffff16815260200190815260200160002060003373ffffffffffffffffffffffffffffffffffffffff1673ffffffffffffffffffffffffffffffffffffffff16815260200190815260200160002081908060018154018082558091505060019003906000526020600020016000909190919091509081613fc49190615339565b503373ffffffffffffffffffffffffffffffffffffffff168273ffffffffffffffffffffffffffffffffffffffff167fd42533516035ff61eeff65eacd819a258171887c53829d4aa3ea5a52d021c0413384604051614024929190615627565b60405180910390a35050565b600360003373ffffffffffffffffffffffffffffffffffffffff1673ffffffffffffffffffffffffffffffffffffffff16815260200190815260200160002060020160009054906101000a900460ff166140bf576040517f08c379a00000000000000000000000000000000000000000000000000000000081526004016140b690615c23565b60405180910390fd5b600460008473ffffffffffffffffffffffffffffffffffffffff1673ffffffffffffffffffffffffffffffffffffffff168152602001908152602001600020805490508210614143576040517f08c379a000000000000000000000000000000000000000000000000000000000815260040161413a9061548e565b60405180910390fd5b6000600460008573ffffffffffffffffffffffffffffffffffffffff1673ffffffffffffffffffffffffffffffffffffffff168152602001908152602001600020838154811061419657614195614f4e565b5b906000526020600020906005020190503373ffffffffffffffffffffffffffffffffffffffff168160010160009054906101000a900473ffffffffffffffffffffffffffffffffffffffff1673ffffffffffffffffffffffffffffffffffffffff1614614238576040517f08c379a000000000000000000000000000000000000000000000000000000000815260040161422f90615c8f565b60405180910390fd5b8060040160009054906101000a900460ff16614289576040517f08c379a000000000000000000000000000000000000000000000000000000000815260040161428090615cfb565b60405180910390fd5b8060040160019054906101000a900460ff16156142db576040517f08c379a00000000000000000000000000000000000000000000000000000000081526004016142d290615d67565b60405180910390fd5b600160008573ffffffffffffffffffffffffffffffffffffffff1673ffffffffffffffffffffffffffffffffffffffff1681526020019081526020016000206001018290806001815401808255809150506001900390600052602060002001600090919091909150908161434f9190615339565b5060018160040160016101000a81548160ff0219169083151502179055503373ffffffffffffffffffffffffffffffffffffffff168473ffffffffffffffffffffffffffffffffffffffff167f1c94204b35b44f2befc62cb1d08478c85fbd8adc4e50724d9e9ff2e2c5536c78846040516143ca919061572f565b60405180910390a350505050565b6060600780548060200260200160405190810160405280929190818152602001828054801561445c57602002820191906000526020600020905b8160009054906101000a900473ffffffffffffffffffffffffffffffffffffffff1673ffffffffffffffffffffffffffffffffffffffff1681526020019060010190808311614412575b5050505050905090565b50805460008255906000526020600020908101906144849190614487565b50565b5b808211156144a7576000818161449e91906144ab565b50600101614488565b5090565b5080546144b79061515c565b6000825580601f106144c957506144e8565b601f0160209004906000526020600020908101906144e791906144eb565b5b50565b5b808211156145045760008160009055506001016144ec565b5090565b6000604051905090565b600080fd5b600080fd5b600073ffffffffffffffffffffffffffffffffffffffff82169050919050565b60006145478261451c565b9050919050565b6145578161453c565b811461456257600080fd5b50565b6000813590506145748161454e565b92915050565b6000602082840312156145905761458f614512565b5b600061459e84828501614565565b91505092915050565b600080fd5b600080fd5b6000601f19601f8301169050919050565b7f4e487b7100000000000000000000000000000000000000000000000000000000600052604160045260246000fd5b6145fa826145b1565b810181811067ffffffffffffffff82111715614619576146186145c2565b5b80604052505050565b600061462c614508565b905061463882826145f1565b919050565b600067ffffffffffffffff821115614658576146576145c2565b5b614661826145b1565b9050602081019050919050565b82818337600083830152505050565b600061469061468b8461463d565b614622565b9050828152602081018484840111156146ac576146ab6145ac565b5b6146b784828561466e565b509392505050565b600082601f8301126146d4576146d36145a7565b5b81356146e484826020860161467d565b91505092915050565b6000806000806080858703121561470757614706614512565b5b600061471587828801614565565b945050602061472687828801614565565b935050604085013567ffffffffffffffff81111561474757614746614517565b5b614753878288016146bf565b925050606085013567ffffffffffffffff81111561477457614773614517565b5b614780878288016146bf565b91505092959194509250565b6000819050919050565b61479f8161478c565b81146147aa57600080fd5b50565b6000813590506147bc81614796565b92915050565b6000602082840312156147d8576147d7614512565b5b60006147e6848285016147ad565b91505092915050565b600081519050919050565b600082825260208201905092915050565b6000819050602082019050919050565b600081519050919050565b600082825260208201905092915050565b60005b8381101561485557808201518184015260208101905061483a565b60008484015250505050565b600061486c8261481b565b6148768185614826565b9350614886818560208601614837565b61488f816145b1565b840191505092915050565b60006148a68383614861565b905092915050565b6000602082019050919050565b60006148c6826147ef565b6148d081856147fa565b9350836020820285016148e28561480b565b8060005b8581101561491e57848403895281516148ff858261489a565b945061490a836148ae565b925060208a019950506001810190506148e6565b50829750879550505050505092915050565b6000602082019050818103600083015261494a81846148bb565b905092915050565b6000806040838503121561496957614968614512565b5b600061497785828601614565565b925050602083013567ffffffffffffffff81111561499857614997614517565b5b6149a4858286016146bf565b9150509250929050565b600080604083850312156149c5576149c4614512565b5b600083013567ffffffffffffffff8111156149e3576149e2614517565b5b6149ef858286016146bf565b925050602083013567ffffffffffffffff811115614a1057614a0f614517565b5b614a1c858286016146bf565b9150509250929050565b600082825260208201905092915050565b6000614a428261481b565b614a4c8185614a26565b9350614a5c818560208601614837565b614a65816145b1565b840191505092915050565b60008115159050919050565b614a8581614a70565b82525050565b60006060820190508181036000830152614aa58186614a37565b90508181036020830152614ab98185614a37565b9050614ac86040830184614a7c565b949350505050565b60006040820190508181036000830152614aea8185614a37565b9050614af96020830184614a7c565b9392505050565b600081519050919050565b600082825260208201905092915050565b6000819050602082019050919050565b614b358161453c565b82525050565b6000614b478383614b2c565b60208301905092915050565b6000602082019050919050565b6000614b6b82614b00565b614b758185614b0b565b9350614b8083614b1c565b8060005b83811015614bb1578151614b988882614b3b565b9750614ba383614b53565b925050600181019050614b84565b5085935050505092915050565b60006020820190508181036000830152614bd88184614b60565b905092915050565b6000602082019050614bf56000830184614a7c565b92915050565b60008060408385031215614c1257614c11614512565b5b6000614c2085828601614565565b9250506020614c3185828601614565565b9150509250929050565b600060208284031215614c5157614c50614512565b5b600082013567ffffffffffffffff811115614c6f57614c6e614517565b5b614c7b848285016146bf565b91505092915050565b600081519050919050565b600082825260208201905092915050565b6000819050602082019050919050565b614cb981614a70565b82525050565b600060c083016000830151614cd76000860182614b2c565b506020830151614cea6020860182614b2c565b5060408301518482036040860152614d028282614861565b91505060608301518482036060860152614d1c8282614861565b9150506080830151614d316080860182614cb0565b5060a0830151614d4460a0860182614cb0565b508091505092915050565b6000614d5b8383614cbf565b905092915050565b6000602082019050919050565b6000614d7b82614c84565b614d858185614c8f565b935083602082028501614d9785614ca0565b8060005b85811015614dd35784840389528151614db48582614d4f565b9450614dbf83614d63565b925060208a01995050600181019050614d9b565b50829750879550505050505092915050565b60006020820190508181036000830152614dff8184614d70565b905092915050565b600080600060608486031215614e2057614e1f614512565b5b6000614e2e86828701614565565b9350506020614e3f868287016147ad565b925050604084013567ffffffffffffffff811115614e6057614e5f614517565b5b614e6c868287016146bf565b9150509250925092565b7f6f6e6c7920726567697374657265642070617469656e74730000000000000000600082015250565b6000614eac601883614a26565b9150614eb782614e76565b602082019050919050565b60006020820190508181036000830152614edb81614e9f565b9050919050565b7f646f63746f7220646f6573206e6f742065786973747300000000000000000000600082015250565b6000614f18601683614a26565b9150614f2382614ee2565b602082019050919050565b60006020820190508181036000830152614f4781614f0b565b9050919050565b7f4e487b7100000000000000000000000000000000000000000000000000000000600052603260045260246000fd5b7f6f6e6c79207265676973746572656420646f63746f7273000000000000000000600082015250565b6000614fb3601783614a26565b9150614fbe82614f7d565b602082019050919050565b60006020820190508181036000830152614fe281614fa6565b9050919050565b7f50617469656e74206e6f74206578697374730000000000000000000000000000600082015250565b600061501f601283614a26565b915061502a82614fe9565b602082019050919050565b6000602082019050818103600083015261504e81615012565b9050919050565b7f446f63746f72206e6f7420616c6c6f7765642062792070617469656e74000000600082015250565b600061508b601d83614a26565b915061509682615055565b602082019050919050565b600060208201905081810360008301526150ba8161507e565b9050919050565b7f4c6162206e6f7420657869737473000000000000000000000000000000000000600082015250565b60006150f7600e83614a26565b9150615102826150c1565b602082019050919050565b60006020820190508181036000830152615126816150ea565b9050919050565b7f4e487b7100000000000000000000000000000000000000000000000000000000600052602260045260246000fd5b6000600282049050600182168061517457607f821691505b6020821081036151875761518661512d565b5b50919050565b60008190508160005260206000209050919050565b60006020601f8301049050919050565b600082821b905092915050565b6000600883026151ef7fffffffffffffffffffffffffffffffffffffffffffffffffffffffffffffffff826151b2565b6151f986836151b2565b95508019841693508086168417925050509392505050565b6000819050919050565b600061523661523161522c8461478c565b615211565b61478c565b9050919050565b6000819050919050565b6152508361521b565b61526461525c8261523d565b8484546151bf565b825550505050565b600090565b61527961526c565b615284818484615247565b505050565b5b818110156152a85761529d600082615271565b60018101905061528a565b5050565b601f8211156152ed576152be8161518d565b6152c7846151a2565b810160208510156152d6578190505b6152ea6152e2856151a2565b830182615289565b50505b505050565b600082821c905092915050565b6000615310600019846008026152f2565b1980831691505092915050565b600061532983836152ff565b9150826002028217905092915050565b6153428261481b565b67ffffffffffffffff81111561535b5761535a6145c2565b5b615365825461515c565b6153708282856152ac565b600060209050601f8311600181146153a35760008415615391578287015190505b61539b858261531d565b865550615403565b601f1984166153b18661518d565b60005b828110156153d9578489015182556001820191506020850194506020810190506153b4565b868310156153f657848901516153f2601f8916826152ff565b8355505b6001600288020188555050505b505050505050565b600060408201905081810360008301526154258185614a37565b905081810360208301526154398184614a37565b90509392505050565b7f496e76616c6964207265717565737420696e6465780000000000000000000000600082015250565b6000615478601583614a26565b915061548382615442565b602082019050919050565b600060208201905081810360008301526154a78161546b565b9050919050565b7f6e6f7420617574686f72697a656420746f206163636573732070617469656e7460008201527f7320646174610000000000000000000000000000000000000000000000000000602082015250565b600061550a602683614a26565b9150615515826154ae565b604082019050919050565b60006020820190508181036000830152615539816154fd565b9050919050565b7f70617469656e7420646f6573206e6f7420657869737473000000000000000000600082015250565b6000615576601783614a26565b915061558182615540565b602082019050919050565b600060208201905081810360008301526155a581615569565b9050919050565b7f416363657373206e6f74206772616e7465640000000000000000000000000000600082015250565b60006155e2601283614a26565b91506155ed826155ac565b602082019050919050565b60006020820190508181036000830152615611816155d5565b9050919050565b6156218161453c565b82525050565b600060408201905061563c6000830185615618565b818103602083015261564e8184614a37565b90509392505050565b7f4c616220616c7265616479207265676973746572656400000000000000000000600082015250565b600061568d601683614a26565b915061569882615657565b602082019050919050565b600060208201905081810360008301526156bc81615680565b9050919050565b7f446f63746f7220646f6573206e6f742065786973740000000000000000000000600082015250565b60006156f9601583614a26565b9150615704826156c3565b602082019050919050565b60006020820190508181036000830152615728816156ec565b9050919050565b600060208201905081810360008301526157498184614a37565b905092915050565b7f50617469656e7420646f6573206e6f7420657869737400000000000000000000600082015250565b6000615787601683614a26565b915061579282615751565b602082019050919050565b600060208201905081810360008301526157b68161577a565b9050919050565b7f4e6f7420617574686f72697a656420746f206163636573732070617469656e7460008201527f2064617461000000000000000000000000000000000000000000000000000000602082015250565b6000615819602583614a26565b9150615824826157bd565b604082019050919050565b600060208201905081810360008301526158488161580c565b9050919050565b7f4e6f206163636573730000000000000000000000000000000000000000000000600082015250565b6000615885600983614a26565b91506158908261584f565b602082019050919050565b600060208201905081810360008301526158b481615878565b9050919050565b7f4e487b7100000000000000000000000000000000000000000000000000000000600052601160045260246000fd5b60006158f58261478c565b91507fffffffffffffffffffffffffffffffffffffffffffffffffffffffffffffffff8203615927576159266158bb565b5b600182019050919050565b7f446f63746f7220646f6573206e6f742065786973747300000000000000000000600082015250565b6000615968601683614a26565b915061597382615932565b602082019050919050565b600060208201905081810360008301526159978161595b565b9050919050565b7f416c726561647920726567697374657265640000000000000000000000000000600082015250565b60006159d4601283614a26565b91506159df8261599e565b602082019050919050565b60006020820190508181036000830152615a03816159c7565b9050919050565b6000615a158261478c565b9150615a208361478c565b9250828203905081811115615a3857615a376158bb565b5b92915050565b7f4e487b7100000000000000000000000000000000000000000000000000000000600052603160045260246000fd5b7f4f6e6c7920646f63746f722063616e206163636573732074686569722070617460008201527f69656e74206c6973740000000000000000000000000000000000000000000000602082015250565b6000615ac9602983614a26565b9150615ad482615a6d565b604082019050919050565b60006020820190508181036000830152615af881615abc565b9050919050565b7f4c616220646f6573206e6f742065786973740000000000000000000000000000600082015250565b6000615b35601283614a26565b9150615b4082615aff565b602082019050919050565b60006020820190508181036000830152615b6481615b28565b9050919050565b7f416363657373206e6f74206772616e7465642062792070617469656e74000000600082015250565b6000615ba1601d83614a26565b9150615bac82615b6b565b602082019050919050565b60006020820190508181036000830152615bd081615b94565b9050919050565b7f4f6e6c792072656769737465726564206c616273000000000000000000000000600082015250565b6000615c0d601483614a26565b9150615c1882615bd7565b602082019050919050565b60006020820190508181036000830152615c3c81615c00565b9050919050565b7f4e6f742061737369676e656420746f2074686973206c61620000000000000000600082015250565b6000615c79601883614a26565b9150615c8482615c43565b602082019050919050565b60006020820190508181036000830152615ca881615c6c565b9050919050565b7f50617469656e7420686173206e6f7420617070726f7665640000000000000000600082015250565b6000615ce5601883614a26565b9150615cf082615caf565b602082019050919050565b60006020820190508181036000830152615d1481615cd8565b9050919050565b7f5265717565737420616c726561647920636f6d706c6574656400000000000000600082015250565b6000615d51601983614a26565b9150615d5c82615d1b565b602082019050919050565b60006020820190508181036000830152615d8081615d44565b905091905056fea2646970667358221220435f752e2835b87ec88688c4adeaa3bece7746f1d7a66f4bf5e7f557f94f023364736f6c634300081c0033",
  "linkReferences": {},
  "deployedLinkReferences": {}
}