{
  "_format": "hh-sol-artifact-1",
  "contractName": "EHR",
  "sourceName": "contracts/EHR.sol",
  "abi": [
    {
      "anonymous": false,
      "inputs": [
        {
          "indexed": true,
          "internalType": "address",
          "name": "patientAddress",
          "type": "address"
        },
        {
          "indexed": true,
          "internalType": "address",
          "name": "doctorAddress",
          "type": "address"
        }
      ],
      "name": "AccessGranted",
      "type": "event"
    },
    {
      "anonymous": false,
      "inputs": [
        {
          "indexed": true,
          "internalType": "address",
          "name": "patientAddress",
          "type": "address"
        },
        {
          "indexed": true,
          "internalType": "address",
          "name": "doctorAddress",
          "type": "address"
        }
      ],
      "name": "AccessRevoked",
      "type": "event"
    },
    {
      "anonymous": false,
      "inputs": [
        {
          "indexed": true,
          "internalType": "address",
          "name": "patientAddress",
          "type": "address"
        },
        {
          "indexed": true,
          "internalType": "address",
          "name": "doctorAddress",
          "type": "address"
        },
        {
          "indexed": false,
          "internalType": "address",
          "name": "sender",
          "type": "address"
        },
        {
          "indexed": false,
          "internalType": "string",
          "name": "ipfsHash",
          "type": "string"
        }
      ],
      "name": "ChatMessageSent",
      "type": "event"
    },
    {
      "anonymous": false,
      "inputs": [
        {
          "indexed": true,
          "internalType": "address",
          "name": "doctorAddress",
          "type": "address"
        }
      ],
      "name": "DoctorRegistered",
      "type": "event"
    },
    {
      "anonymous": false,
      "inputs": [
        {
          "indexed": true,
          "internalType": "address",
          "name": "patientAddress",
          "type": "address"
        },
        {
          "indexed": false,
          "internalType": "string",
          "name": "ipfsHash",
          "type": "string"
        }
      ],
      "name": "MedicalRecordAdded",
      "type": "event"
    },
    {
      "anonymous": false,
      "inputs": [
        {
          "indexed": true,
          "internalType": "address",
          "name": "patientAddress",
          "type": "address"
        }
      ],
      "name": "PatientRegistered",
      "type": "event"
    },
    {
      "inputs": [
        {
          "internalType": "address",
          "name": "patientAddress",
          "type": "address"
        },
        {
          "internalType": "string",
          "name": "ipfshash",
          "type": "string"
        }
      ],
      "name": "addMedicalRecord",
      "outputs": [],
      "stateMutability": "nonpayable",
      "type": "function"
    },
    {
      "inputs": [
        {
          "internalType": "address",
          "name": "patientAddress",
          "type": "address"
        },
        {
          "internalType": "address",
          "name": "doctorAddress",
          "type": "address"
        }
      ],
      "name": "checkAccess",
      "outputs": [
        {
          "internalType": "bool",
          "name": "",
          "type": "bool"
        }
      ],
      "stateMutability": "view",
      "type": "function"
    },
    {
      "inputs": [],
      "name": "getAllDoctorAddresses",
      "outputs": [
        {
          "internalType": "address[]",
          "name": "",
          "type": "address[]"
        }
      ],
      "stateMutability": "view",
      "type": "function"
    },
    {
      "inputs": [],
      "name": "getAllPatientAddresses",
      "outputs": [
        {
          "internalType": "address[]",
          "name": "",
          "type": "address[]"
        }
      ],
      "stateMutability": "view",
      "type": "function"
    },
    {
      "inputs": [
        {
          "internalType": "address",
          "name": "patientAddress",
          "type": "address"
        }
      ],
      "name": "getAllowedDoctors",
      "outputs": [
        {
          "internalType": "address[]",
          "name": "",
          "type": "address[]"
        }
      ],
      "stateMutability": "view",
      "type": "function"
    },
    {
      "inputs": [
        {
          "internalType": "address",
          "name": "doctorAddress",
          "type": "address"
        }
      ],
      "name": "getChat",
      "outputs": [
        {
          "internalType": "string[]",
          "name": "",
          "type": "string[]"
        }
      ],
      "stateMutability": "view",
      "type": "function"
    },
    {
      "inputs": [
        {
          "internalType": "address",
          "name": "patientAddress",
          "type": "address"
        }
      ],
      "name": "getChatWithPatient",
      "outputs": [
        {
          "internalType": "string[]",
          "name": "",
          "type": "string[]"
        }
      ],
      "stateMutability": "view",
      "type": "function"
    },
    {
      "inputs": [
        {
          "internalType": "address",
          "name": "doctorAddress",
          "type": "address"
        }
      ],
      "name": "getDoctorData",
      "outputs": [
        {
          "internalType": "string",
          "name": "dataIPFShash",
          "type": "string"
        },
        {
          "internalType": "string",
          "name": "specialization",
          "type": "string"
        },
        {
          "internalType": "bool",
          "name": "exists",
          "type": "bool"
        }
      ],
      "stateMutability": "view",
      "type": "function"
    },
    {
      "inputs": [
        {
          "internalType": "address",
          "name": "doctorAddress",
          "type": "address"
        }
      ],
      "name": "getDoctorPatients",
      "outputs": [
        {
          "internalType": "address[]",
          "name": "",
          "type": "address[]"
        }
      ],
      "stateMutability": "view",
      "type": "function"
    },
    {
      "inputs": [
        {
          "internalType": "address",
          "name": "patientAddress",
          "type": "address"
        }
      ],
      "name": "getPatientData",
      "outputs": [
        {
          "internalType": "string",
          "name": "dataIPFShash",
          "type": "string"
        },
        {
          "internalType": "bool",
          "name": "exists",
          "type": "bool"
        }
      ],
      "stateMutability": "view",
      "type": "function"
    },
    {
      "inputs": [
        {
          "internalType": "address",
          "name": "patientAddress",
          "type": "address"
        }
      ],
      "name": "getPatientRecords",
      "outputs": [
        {
          "internalType": "string[]",
          "name": "",
          "type": "string[]"
        }
      ],
      "stateMutability": "view",
      "type": "function"
    },
    {
      "inputs": [
        {
          "internalType": "address",
          "name": "doctorAddress",
          "type": "address"
        }
      ],
      "name": "grantAccess",
      "outputs": [],
      "stateMutability": "nonpayable",
      "type": "function"
    },
    {
      "inputs": [
        {
          "internalType": "address",
          "name": "addr",
          "type": "address"
        }
      ],
      "name": "isDoctor",
      "outputs": [
        {
          "internalType": "bool",
          "name": "",
          "type": "bool"
        }
      ],
      "stateMutability": "view",
      "type": "function"
    },
    {
      "inputs": [
        {
          "internalType": "address",
          "name": "addr",
          "type": "address"
        }
      ],
      "name": "isPatient",
      "outputs": [
        {
          "internalType": "bool",
          "name": "",
          "type": "bool"
        }
      ],
      "stateMutability": "view",
      "type": "function"
    },
    {
      "inputs": [
        {
          "internalType": "string",
          "name": "_dataIPFShash",
          "type": "string"
        },
        {
          "internalType": "string",
          "name": "_specialization",
          "type": "string"
        }
      ],
      "name": "registerDoctor",
      "outputs": [],
      "stateMutability": "nonpayable",
      "type": "function"
    },
    {
      "inputs": [
        {
          "internalType": "string",
          "name": "_dataIPFShash",
          "type": "string"
        }
      ],
      "name": "registerPatient",
      "outputs": [],
      "stateMutability": "nonpayable",
      "type": "function"
    },
    {
      "inputs": [
        {
          "internalType": "address",
          "name": "doctorAddress",
          "type": "address"
        }
      ],
      "name": "revokeAccess",
      "outputs": [],
      "stateMutability": "nonpayable",
      "type": "function"
    },
    {
      "inputs": [
        {
          "internalType": "address",
          "name": "doctorAddress",
          "type": "address"
        },
        {
          "internalType": "string",
          "name": "ipfsHash",
          "type": "string"
        }
      ],
      "name": "sendMessageToDoctor",
      "outputs": [],
      "stateMutability": "nonpayable",
      "type": "function"
    },
    {
      "inputs": [
        {
          "internalType": "address",
          "name": "patientAddress",
          "type": "address"
        },
        {
          "internalType": "string",
          "name": "ipfsHash",
          "type": "string"
        }
      ],
      "name": "sendMessageToPatient",
      "outputs": [],
      "stateMutability": "nonpayable",
      "type": "function"
    }
  ],
  "bytecode": "0x6080604052348015600f57600080fd5b506142f68061001f6000396000f3fe608060405234801561001057600080fd5b50600436106101215760003560e01c806362e1f745116100ad5780638f9c79ed116100715780638f9c79ed1461033f57806392be3e651461036f578063996440c61461038d578063ba508467146103bd578063f20648db146103ed57610121565b806362e1f7451461028b578063833b46bb146102bb57806385e68531146102d7578063869c9eaf146102f357806388184a641461030f57610121565b80632efcb62f116100f45780632efcb62f146101c05780633a9b131c146101f057806348e818521461020c578063587fb7a31461023d5780635f7b8ea81461025b57610121565b80630ae5e7391461012657806318bd484714610142578063268e4ddb146101725780632e8ff13c1461018e575b600080fd5b610140600480360381019061013b91906130c8565b610409565b005b61015c600480360381019061015791906130c8565b6107de565b6040516101699190613247565b60405180910390f35b61018c6004803603810190610187919061339e565b610a8c565b005b6101a860048036038101906101a391906130c8565b610d00565b6040516101b79392919061345f565b60405180910390f35b6101da60048036038101906101d591906130c8565b610f17565b6040516101e79190613247565b60405180910390f35b61020a6004803603810190610205919061339e565b6111c6565b005b610226600480360381019061022191906130c8565b611420565b6040516102349291906134a4565b60405180910390f35b6102456116a4565b6040516102529190613592565b60405180910390f35b610275600480360381019061027091906130c8565b611732565b6040516102829190613592565b60405180910390f35b6102a560048036038101906102a091906135b4565b611ba3565b6040516102b291906135f4565b60405180910390f35b6102d560048036038101906102d0919061360f565b611d58565b005b6102f160048036038101906102ec91906130c8565b611fa7565b005b61030d60048036038101906103089190613687565b612548565b005b610329600480360381019061032491906130c8565b612784565b6040516103369190613247565b60405180910390f35b610359600480360381019061035491906130c8565b612a33565b60405161036691906135f4565b60405180910390f35b610377612a8c565b6040516103849190613592565b60405180910390f35b6103a760048036038101906103a291906130c8565b612b1a565b6040516103b491906135f4565b60405180910390f35b6103d760048036038101906103d291906130c8565b612b73565b6040516103e49190613592565b60405180910390f35b6104076004803603810190610402919061339e565b612d40565b005b600160003373ffffffffffffffffffffffffffffffffffffffff1673ffffffffffffffffffffffffffffffffffffffff16815260200190815260200160002060030160009054906101000a900460ff16610498576040517f08c379a000000000000000000000000000000000000000000000000000000000815260040161048f9061371c565b60405180910390fd5b600260008273ffffffffffffffffffffffffffffffffffffffff1673ffffffffffffffffffffffffffffffffffffffff16815260200190815260200160002060030160009054906101000a900460ff16610527576040517f08c379a000000000000000000000000000000000000000000000000000000000815260040161051e90613788565b60405180910390fd5b60018060003373ffffffffffffffffffffffffffffffffffffffff1673ffffffffffffffffffffffffffffffffffffffff16815260200190815260200160002060020160008373ffffffffffffffffffffffffffffffffffffffff1673ffffffffffffffffffffffffffffffffffffffff16815260200190815260200160002060006101000a81548160ff0219169083151502179055506000805b600260008473ffffffffffffffffffffffffffffffffffffffff1673ffffffffffffffffffffffffffffffffffffffff168152602001908152602001600020600201805490508110156106d6573373ffffffffffffffffffffffffffffffffffffffff16600260008573ffffffffffffffffffffffffffffffffffffffff1673ffffffffffffffffffffffffffffffffffffffff168152602001908152602001600020600201828154811061067a576106796137a8565b5b9060005260206000200160009054906101000a900473ffffffffffffffffffffffffffffffffffffffff1673ffffffffffffffffffffffffffffffffffffffff16036106c957600191506106d6565b80806001019150506105c2565b508061078057600260008373ffffffffffffffffffffffffffffffffffffffff1673ffffffffffffffffffffffffffffffffffffffff168152602001908152602001600020600201339080600181540180825580915050600190039060005260206000200160009091909190916101000a81548173ffffffffffffffffffffffffffffffffffffffff021916908373ffffffffffffffffffffffffffffffffffffffff1602179055505b8173ffffffffffffffffffffffffffffffffffffffff163373ffffffffffffffffffffffffffffffffffffffff167f9f520b3bfc56d06f7065d10b4683b3f57ac8895d5026cd176dee95ce1454cb8d60405160405180910390a35050565b6060818073ffffffffffffffffffffffffffffffffffffffff163373ffffffffffffffffffffffffffffffffffffffff1614806108a45750600160008273ffffffffffffffffffffffffffffffffffffffff1673ffffffffffffffffffffffffffffffffffffffff16815260200190815260200160002060020160003373ffffffffffffffffffffffffffffffffffffffff1673ffffffffffffffffffffffffffffffffffffffff16815260200190815260200160002060009054906101000a900460ff165b6108e3576040517f08c379a00000000000000000000000000000000000000000000000000000000081526004016108da90613849565b60405180910390fd5b600160008473ffffffffffffffffffffffffffffffffffffffff1673ffffffffffffffffffffffffffffffffffffffff16815260200190815260200160002060030160009054906101000a900460ff16610972576040517f08c379a0000000000000000000000000000000000000000000000000000000008152600401610969906138b5565b60405180910390fd5b600160008473ffffffffffffffffffffffffffffffffffffffff1673ffffffffffffffffffffffffffffffffffffffff168152602001908152602001600020600101805480602002602001604051908101604052809291908181526020016000905b82821015610a805783829060005260206000200180546109f390613904565b80601f0160208091040260200160405190810160405280929190818152602001828054610a1f90613904565b8015610a6c5780601f10610a4157610100808354040283529160200191610a6c565b820191906000526020600020905b815481529060010190602001808311610a4f57829003601f168201915b5050505050815260200190600101906109d4565b50505050915050919050565b600160003373ffffffffffffffffffffffffffffffffffffffff1673ffffffffffffffffffffffffffffffffffffffff16815260200190815260200160002060030160009054906101000a900460ff16610b1b576040517f08c379a0000000000000000000000000000000000000000000000000000000008152600401610b129061371c565b60405180910390fd5b600160003373ffffffffffffffffffffffffffffffffffffffff1673ffffffffffffffffffffffffffffffffffffffff16815260200190815260200160002060020160008373ffffffffffffffffffffffffffffffffffffffff1673ffffffffffffffffffffffffffffffffffffffff16815260200190815260200160002060009054906101000a900460ff16610be7576040517f08c379a0000000000000000000000000000000000000000000000000000000008152600401610bde90613981565b60405180910390fd5b6000803373ffffffffffffffffffffffffffffffffffffffff1673ffffffffffffffffffffffffffffffffffffffff16815260200190815260200160002060008373ffffffffffffffffffffffffffffffffffffffff1673ffffffffffffffffffffffffffffffffffffffff16815260200190815260200160002081908060018154018082558091505060019003906000526020600020016000909190919091509081610c949190613b57565b508173ffffffffffffffffffffffffffffffffffffffff163373ffffffffffffffffffffffffffffffffffffffff167fd42533516035ff61eeff65eacd819a258171887c53829d4aa3ea5a52d021c0413384604051610cf4929190613c38565b60405180910390a35050565b6060806000600260008573ffffffffffffffffffffffffffffffffffffffff1673ffffffffffffffffffffffffffffffffffffffff16815260200190815260200160002060030160009054906101000a900460ff16610d94576040517f08c379a0000000000000000000000000000000000000000000000000000000008152600401610d8b90613cb4565b60405180910390fd5b6000600260008673ffffffffffffffffffffffffffffffffffffffff1673ffffffffffffffffffffffffffffffffffffffff168152602001908152602001600020905080600001816001018260030160009054906101000a900460ff16828054610dfd90613904565b80601f0160208091040260200160405190810160405280929190818152602001828054610e2990613904565b8015610e765780601f10610e4b57610100808354040283529160200191610e76565b820191906000526020600020905b815481529060010190602001808311610e5957829003601f168201915b50505050509250818054610e8990613904565b80601f0160208091040260200160405190810160405280929190818152602001828054610eb590613904565b8015610f025780601f10610ed757610100808354040283529160200191610f02565b820191906000526020600020905b815481529060010190602001808311610ee557829003601f168201915b50505050509150935093509350509193909250565b6060600160003373ffffffffffffffffffffffffffffffffffffffff1673ffffffffffffffffffffffffffffffffffffffff16815260200190815260200160002060030160009054906101000a900460ff16610fa8576040517f08c379a0000000000000000000000000000000000000000000000000000000008152600401610f9f9061371c565b60405180910390fd5b600160003373ffffffffffffffffffffffffffffffffffffffff1673ffffffffffffffffffffffffffffffffffffffff16815260200190815260200160002060020160008373ffffffffffffffffffffffffffffffffffffffff1673ffffffffffffffffffffffffffffffffffffffff16815260200190815260200160002060009054906101000a900460ff16611074576040517f08c379a000000000000000000000000000000000000000000000000000000000815260040161106b90613981565b60405180910390fd5b6000803373ffffffffffffffffffffffffffffffffffffffff1673ffffffffffffffffffffffffffffffffffffffff16815260200190815260200160002060008373ffffffffffffffffffffffffffffffffffffffff1673ffffffffffffffffffffffffffffffffffffffff168152602001908152602001600020805480602002602001604051908101604052809291908181526020016000905b828210156111bb57838290600052602060002001805461112e90613904565b80601f016020809104026020016040519081016040528092919081815260200182805461115a90613904565b80156111a75780601f1061117c576101008083540402835291602001916111a7565b820191906000526020600020905b81548152906001019060200180831161118a57829003601f168201915b50505050508152602001906001019061110f565b505050509050919050565b818073ffffffffffffffffffffffffffffffffffffffff163373ffffffffffffffffffffffffffffffffffffffff16148061128a5750600160008273ffffffffffffffffffffffffffffffffffffffff1673ffffffffffffffffffffffffffffffffffffffff16815260200190815260200160002060020160003373ffffffffffffffffffffffffffffffffffffffff1673ffffffffffffffffffffffffffffffffffffffff16815260200190815260200160002060009054906101000a900460ff165b6112c9576040517f08c379a00000000000000000000000000000000000000000000000000000000081526004016112c090613849565b60405180910390fd5b600160008473ffffffffffffffffffffffffffffffffffffffff1673ffffffffffffffffffffffffffffffffffffffff16815260200190815260200160002060030160009054906101000a900460ff16611358576040517f08c379a000000000000000000000000000000000000000000000000000000000815260040161134f906138b5565b60405180910390fd5b600160008473ffffffffffffffffffffffffffffffffffffffff1673ffffffffffffffffffffffffffffffffffffffff168152602001908152602001600020600101829080600181540180825580915050600190039060005260206000200160009091909190915090816113cc9190613b57565b508273ffffffffffffffffffffffffffffffffffffffff167f381664328a13775cdca4159b54873d48827358a58c62dac10944c743ecb7ad9b836040516114139190613cd4565b60405180910390a2505050565b60606000600160008473ffffffffffffffffffffffffffffffffffffffff1673ffffffffffffffffffffffffffffffffffffffff16815260200190815260200160002060030160009054906101000a900460ff166114b3576040517f08c379a00000000000000000000000000000000000000000000000000000000081526004016114aa90613d42565b60405180910390fd5b8273ffffffffffffffffffffffffffffffffffffffff163373ffffffffffffffffffffffffffffffffffffffff1614806115765750600160008473ffffffffffffffffffffffffffffffffffffffff1673ffffffffffffffffffffffffffffffffffffffff16815260200190815260200160002060020160003373ffffffffffffffffffffffffffffffffffffffff1673ffffffffffffffffffffffffffffffffffffffff16815260200190815260200160002060009054906101000a900460ff165b6115b5576040517f08c379a00000000000000000000000000000000000000000000000000000000081526004016115ac90613dd4565b60405180910390fd5b6000600160008573ffffffffffffffffffffffffffffffffffffffff1673ffffffffffffffffffffffffffffffffffffffff1681526020019081526020016000209050806000018160030160009054906101000a900460ff1681805461161a90613904565b80601f016020809104026020016040519081016040528092919081815260200182805461164690613904565b80156116935780601f1061166857610100808354040283529160200191611693565b820191906000526020600020905b81548152906001019060200180831161167657829003601f168201915b505050505091509250925050915091565b6060600480548060200260200160405190810160405280929190818152602001828054801561172857602002820191906000526020600020905b8160009054906101000a900473ffffffffffffffffffffffffffffffffffffffff1673ffffffffffffffffffffffffffffffffffffffff16815260200190600101908083116116de575b5050505050905090565b6060600160008373ffffffffffffffffffffffffffffffffffffffff1673ffffffffffffffffffffffffffffffffffffffff16815260200190815260200160002060030160009054906101000a900460ff166117c3576040517f08c379a00000000000000000000000000000000000000000000000000000000081526004016117ba906138b5565b60405180910390fd5b8173ffffffffffffffffffffffffffffffffffffffff163373ffffffffffffffffffffffffffffffffffffffff1614806118865750600160008373ffffffffffffffffffffffffffffffffffffffff1673ffffffffffffffffffffffffffffffffffffffff16815260200190815260200160002060020160003373ffffffffffffffffffffffffffffffffffffffff1673ffffffffffffffffffffffffffffffffffffffff16815260200190815260200160002060009054906101000a900460ff165b6118c5576040517f08c379a00000000000000000000000000000000000000000000000000000000081526004016118bc90613e40565b60405180910390fd5b6000805b6004805490508110156119c257600160008573ffffffffffffffffffffffffffffffffffffffff1673ffffffffffffffffffffffffffffffffffffffff16815260200190815260200160002060020160006004838154811061192e5761192d6137a8565b5b9060005260206000200160009054906101000a900473ffffffffffffffffffffffffffffffffffffffff1673ffffffffffffffffffffffffffffffffffffffff1673ffffffffffffffffffffffffffffffffffffffff16815260200190815260200160002060009054906101000a900460ff16156119b55781806119b190613e8f565b9250505b80806001019150506118c9565b5060008167ffffffffffffffff8111156119df576119de613273565b5b604051908082528060200260200182016040528015611a0d5781602001602082028036833780820191505090505b5090506000805b600480549050811015611b9757600160008773ffffffffffffffffffffffffffffffffffffffff1673ffffffffffffffffffffffffffffffffffffffff168152602001908152602001600020600201600060048381548110611a7957611a786137a8565b5b9060005260206000200160009054906101000a900473ffffffffffffffffffffffffffffffffffffffff1673ffffffffffffffffffffffffffffffffffffffff1673ffffffffffffffffffffffffffffffffffffffff16815260200190815260200160002060009054906101000a900460ff1615611b8a5760048181548110611b0557611b046137a8565b5b9060005260206000200160009054906101000a900473ffffffffffffffffffffffffffffffffffffffff16838380611b3c90613e8f565b945081518110611b4f57611b4e6137a8565b5b602002602001019073ffffffffffffffffffffffffffffffffffffffff16908173ffffffffffffffffffffffffffffffffffffffff16815250505b8080600101915050611a14565b50819350505050919050565b6000600160008473ffffffffffffffffffffffffffffffffffffffff1673ffffffffffffffffffffffffffffffffffffffff16815260200190815260200160002060030160009054906101000a900460ff16611c34576040517f08c379a0000000000000000000000000000000000000000000000000000000008152600401611c2b906138b5565b60405180910390fd5b600260008373ffffffffffffffffffffffffffffffffffffffff1673ffffffffffffffffffffffffffffffffffffffff16815260200190815260200160002060030160009054906101000a900460ff16611cc3576040517f08c379a0000000000000000000000000000000000000000000000000000000008152600401611cba90613f23565b60405180910390fd5b600160008473ffffffffffffffffffffffffffffffffffffffff1673ffffffffffffffffffffffffffffffffffffffff16815260200190815260200160002060020160008373ffffffffffffffffffffffffffffffffffffffff1673ffffffffffffffffffffffffffffffffffffffff16815260200190815260200160002060009054906101000a900460ff16905092915050565b600260003373ffffffffffffffffffffffffffffffffffffffff1673ffffffffffffffffffffffffffffffffffffffff16815260200190815260200160002060030160009054906101000a900460ff1615611de8576040517f08c379a0000000000000000000000000000000000000000000000000000000008152600401611ddf90613f8f565b60405180910390fd5b600160003373ffffffffffffffffffffffffffffffffffffffff1673ffffffffffffffffffffffffffffffffffffffff16815260200190815260200160002060030160009054906101000a900460ff1615611e78576040517f08c379a0000000000000000000000000000000000000000000000000000000008152600401611e6f90613ffb565b60405180910390fd5b6000600260003373ffffffffffffffffffffffffffffffffffffffff1673ffffffffffffffffffffffffffffffffffffffff168152602001908152602001600020905082816000019081611ecc9190613b57565b5060018160030160006101000a81548160ff02191690831515021790555081816001019081611efb9190613b57565b506004339080600181540180825580915050600190039060005260206000200160009091909190916101000a81548173ffffffffffffffffffffffffffffffffffffffff021916908373ffffffffffffffffffffffffffffffffffffffff1602179055503373ffffffffffffffffffffffffffffffffffffffff167f2dc8105a7545248d0e354c4c6b02fb583071cc719fb4bef1ca74d72d475570bc60405160405180910390a2505050565b600160003373ffffffffffffffffffffffffffffffffffffffff1673ffffffffffffffffffffffffffffffffffffffff16815260200190815260200160002060030160009054906101000a900460ff16612036576040517f08c379a000000000000000000000000000000000000000000000000000000000815260040161202d9061371c565b60405180910390fd5b600260008273ffffffffffffffffffffffffffffffffffffffff1673ffffffffffffffffffffffffffffffffffffffff16815260200190815260200160002060030160009054906101000a900460ff166120c5576040517f08c379a00000000000000000000000000000000000000000000000000000000081526004016120bc90613788565b60405180910390fd5b6000600160003373ffffffffffffffffffffffffffffffffffffffff1673ffffffffffffffffffffffffffffffffffffffff16815260200190815260200160002060020160008373ffffffffffffffffffffffffffffffffffffffff1673ffffffffffffffffffffffffffffffffffffffff16815260200190815260200160002060006101000a81548160ff02191690831515021790555060005b600260008373ffffffffffffffffffffffffffffffffffffffff1673ffffffffffffffffffffffffffffffffffffffff16815260200190815260200160002060020180549050811015612463573373ffffffffffffffffffffffffffffffffffffffff16600260008473ffffffffffffffffffffffffffffffffffffffff1673ffffffffffffffffffffffffffffffffffffffff1681526020019081526020016000206002018281548110612218576122176137a8565b5b9060005260206000200160009054906101000a900473ffffffffffffffffffffffffffffffffffffffff1673ffffffffffffffffffffffffffffffffffffffff160361245657600260008373ffffffffffffffffffffffffffffffffffffffff1673ffffffffffffffffffffffffffffffffffffffff1681526020019081526020016000206002016001600260008573ffffffffffffffffffffffffffffffffffffffff1673ffffffffffffffffffffffffffffffffffffffff168152602001908152602001600020600201805490506122f2919061401b565b81548110612303576123026137a8565b5b9060005260206000200160009054906101000a900473ffffffffffffffffffffffffffffffffffffffff16600260008473ffffffffffffffffffffffffffffffffffffffff1673ffffffffffffffffffffffffffffffffffffffff1681526020019081526020016000206002018281548110612382576123816137a8565b5b9060005260206000200160006101000a81548173ffffffffffffffffffffffffffffffffffffffff021916908373ffffffffffffffffffffffffffffffffffffffff160217905550600260008373ffffffffffffffffffffffffffffffffffffffff1673ffffffffffffffffffffffffffffffffffffffff16815260200190815260200160002060020180548061241c5761241b61404f565b5b6001900381819060005260206000200160006101000a81549073ffffffffffffffffffffffffffffffffffffffff02191690559055612463565b8080600101915050612160565b506000803373ffffffffffffffffffffffffffffffffffffffff1673ffffffffffffffffffffffffffffffffffffffff16815260200190815260200160002060008273ffffffffffffffffffffffffffffffffffffffff1673ffffffffffffffffffffffffffffffffffffffff16815260200190815260200160002060006124eb9190612fb4565b8073ffffffffffffffffffffffffffffffffffffffff163373ffffffffffffffffffffffffffffffffffffffff167f825c8be24eb0df19500f63e86c29e7d0d951e73056b889b891d85e40938d9b6e60405160405180910390a350565b600160003373ffffffffffffffffffffffffffffffffffffffff1673ffffffffffffffffffffffffffffffffffffffff16815260200190815260200160002060030160009054906101000a900460ff16156125d8576040517f08c379a00000000000000000000000000000000000000000000000000000000081526004016125cf906140ca565b60405180910390fd5b600260003373ffffffffffffffffffffffffffffffffffffffff1673ffffffffffffffffffffffffffffffffffffffff16815260200190815260200160002060030160009054906101000a900460ff1615612668576040517f08c379a000000000000000000000000000000000000000000000000000000000815260040161265f90614136565b60405180910390fd5b6000600160003373ffffffffffffffffffffffffffffffffffffffff1673ffffffffffffffffffffffffffffffffffffffff1681526020019081526020016000209050818160000190816126bc9190613b57565b5060018160030160006101000a81548160ff0219169083151502179055506003339080600181540180825580915050600190039060005260206000200160009091909190916101000a81548173ffffffffffffffffffffffffffffffffffffffff021916908373ffffffffffffffffffffffffffffffffffffffff1602179055503373ffffffffffffffffffffffffffffffffffffffff167fc9fa2003fca4ce0dfc8cb0deae32266b715536df6685365b05b5be96ede8e49c60405160405180910390a25050565b6060600260003373ffffffffffffffffffffffffffffffffffffffff1673ffffffffffffffffffffffffffffffffffffffff16815260200190815260200160002060030160009054906101000a900460ff16612815576040517f08c379a000000000000000000000000000000000000000000000000000000000815260040161280c906141a2565b60405180910390fd5b600160008373ffffffffffffffffffffffffffffffffffffffff1673ffffffffffffffffffffffffffffffffffffffff16815260200190815260200160002060020160003373ffffffffffffffffffffffffffffffffffffffff1673ffffffffffffffffffffffffffffffffffffffff16815260200190815260200160002060009054906101000a900460ff166128e1576040517f08c379a00000000000000000000000000000000000000000000000000000000081526004016128d890613981565b60405180910390fd5b6000808373ffffffffffffffffffffffffffffffffffffffff1673ffffffffffffffffffffffffffffffffffffffff16815260200190815260200160002060003373ffffffffffffffffffffffffffffffffffffffff1673ffffffffffffffffffffffffffffffffffffffff168152602001908152602001600020805480602002602001604051908101604052809291908181526020016000905b82821015612a2857838290600052602060002001805461299b90613904565b80601f01602080910402602001604051908101604052809291908181526020018280546129c790613904565b8015612a145780601f106129e957610100808354040283529160200191612a14565b820191906000526020600020905b8154815290600101906020018083116129f757829003601f168201915b50505050508152602001906001019061297c565b505050509050919050565b6000600160008373ffffffffffffffffffffffffffffffffffffffff1673ffffffffffffffffffffffffffffffffffffffff16815260200190815260200160002060030160009054906101000a900460ff169050919050565b60606003805480602002602001604051908101604052809291908181526020018280548015612b1057602002820191906000526020600020905b8160009054906101000a900473ffffffffffffffffffffffffffffffffffffffff1673ffffffffffffffffffffffffffffffffffffffff1681526020019060010190808311612ac6575b5050505050905090565b6000600260008373ffffffffffffffffffffffffffffffffffffffff1673ffffffffffffffffffffffffffffffffffffffff16815260200190815260200160002060030160009054906101000a900460ff169050919050565b6060600260008373ffffffffffffffffffffffffffffffffffffffff1673ffffffffffffffffffffffffffffffffffffffff16815260200190815260200160002060030160009054906101000a900460ff16612c04576040517f08c379a0000000000000000000000000000000000000000000000000000000008152600401612bfb90613cb4565b60405180910390fd5b8173ffffffffffffffffffffffffffffffffffffffff163373ffffffffffffffffffffffffffffffffffffffff1614612c72576040517f08c379a0000000000000000000000000000000000000000000000000000000008152600401612c6990614234565b60405180910390fd5b600260008373ffffffffffffffffffffffffffffffffffffffff1673ffffffffffffffffffffffffffffffffffffffff168152602001908152602001600020600201805480602002602001604051908101604052809291908181526020018280548015612d3457602002820191906000526020600020905b8160009054906101000a900473ffffffffffffffffffffffffffffffffffffffff1673ffffffffffffffffffffffffffffffffffffffff1681526020019060010190808311612cea575b50505050509050919050565b600260003373ffffffffffffffffffffffffffffffffffffffff1673ffffffffffffffffffffffffffffffffffffffff16815260200190815260200160002060030160009054906101000a900460ff16612dcf576040517f08c379a0000000000000000000000000000000000000000000000000000000008152600401612dc6906141a2565b60405180910390fd5b600160008373ffffffffffffffffffffffffffffffffffffffff1673ffffffffffffffffffffffffffffffffffffffff16815260200190815260200160002060020160003373ffffffffffffffffffffffffffffffffffffffff1673ffffffffffffffffffffffffffffffffffffffff16815260200190815260200160002060009054906101000a900460ff16612e9b576040517f08c379a0000000000000000000000000000000000000000000000000000000008152600401612e92906142a0565b60405180910390fd5b6000808373ffffffffffffffffffffffffffffffffffffffff1673ffffffffffffffffffffffffffffffffffffffff16815260200190815260200160002060003373ffffffffffffffffffffffffffffffffffffffff1673ffffffffffffffffffffffffffffffffffffffff16815260200190815260200160002081908060018154018082558091505060019003906000526020600020016000909190919091509081612f489190613b57565b503373ffffffffffffffffffffffffffffffffffffffff168273ffffffffffffffffffffffffffffffffffffffff167fd42533516035ff61eeff65eacd819a258171887c53829d4aa3ea5a52d021c0413384604051612fa8929190613c38565b60405180910390a35050565b5080546000825590600052602060002090810190612fd29190612fd5565b50565b5b80821115612ff55760008181612fec9190612ff9565b50600101612fd6565b5090565b50805461300590613904565b6000825580601f106130175750613036565b601f0160209004906000526020600020908101906130359190613039565b5b50565b5b8082111561305257600081600090555060010161303a565b5090565b6000604051905090565b600080fd5b600080fd5b600073ffffffffffffffffffffffffffffffffffffffff82169050919050565b60006130958261306a565b9050919050565b6130a58161308a565b81146130b057600080fd5b50565b6000813590506130c28161309c565b92915050565b6000602082840312156130de576130dd613060565b5b60006130ec848285016130b3565b91505092915050565b600081519050919050565b600082825260208201905092915050565b6000819050602082019050919050565b600081519050919050565b600082825260208201905092915050565b60005b8381101561315b578082015181840152602081019050613140565b60008484015250505050565b6000601f19601f8301169050919050565b600061318382613121565b61318d818561312c565b935061319d81856020860161313d565b6131a681613167565b840191505092915050565b60006131bd8383613178565b905092915050565b6000602082019050919050565b60006131dd826130f5565b6131e78185613100565b9350836020820285016131f985613111565b8060005b85811015613235578484038952815161321685826131b1565b9450613221836131c5565b925060208a019950506001810190506131fd565b50829750879550505050505092915050565b6000602082019050818103600083015261326181846131d2565b905092915050565b600080fd5b600080fd5b7f4e487b7100000000000000000000000000000000000000000000000000000000600052604160045260246000fd5b6132ab82613167565b810181811067ffffffffffffffff821117156132ca576132c9613273565b5b80604052505050565b60006132dd613056565b90506132e982826132a2565b919050565b600067ffffffffffffffff82111561330957613308613273565b5b61331282613167565b9050602081019050919050565b82818337600083830152505050565b600061334161333c846132ee565b6132d3565b90508281526020810184848401111561335d5761335c61326e565b5b61336884828561331f565b509392505050565b600082601f83011261338557613384613269565b5b813561339584826020860161332e565b91505092915050565b600080604083850312156133b5576133b4613060565b5b60006133c3858286016130b3565b925050602083013567ffffffffffffffff8111156133e4576133e3613065565b5b6133f085828601613370565b9150509250929050565b600082825260208201905092915050565b600061341682613121565b61342081856133fa565b935061343081856020860161313d565b61343981613167565b840191505092915050565b60008115159050919050565b61345981613444565b82525050565b60006060820190508181036000830152613479818661340b565b9050818103602083015261348d818561340b565b905061349c6040830184613450565b949350505050565b600060408201905081810360008301526134be818561340b565b90506134cd6020830184613450565b9392505050565b600081519050919050565b600082825260208201905092915050565b6000819050602082019050919050565b6135098161308a565b82525050565b600061351b8383613500565b60208301905092915050565b6000602082019050919050565b600061353f826134d4565b61354981856134df565b9350613554836134f0565b8060005b8381101561358557815161356c888261350f565b975061357783613527565b925050600181019050613558565b5085935050505092915050565b600060208201905081810360008301526135ac8184613534565b905092915050565b600080604083850312156135cb576135ca613060565b5b60006135d9858286016130b3565b92505060206135ea858286016130b3565b9150509250929050565b60006020820190506136096000830184613450565b92915050565b6000806040838503121561362657613625613060565b5b600083013567ffffffffffffffff81111561364457613643613065565b5b61365085828601613370565b925050602083013567ffffffffffffffff81111561367157613670613065565b5b61367d85828601613370565b9150509250929050565b60006020828403121561369d5761369c613060565b5b600082013567ffffffffffffffff8111156136bb576136ba613065565b5b6136c784828501613370565b91505092915050565b7f6f6e6c7920726567697374657265642070617469656e74730000000000000000600082015250565b60006137066018836133fa565b9150613711826136d0565b602082019050919050565b60006020820190508181036000830152613735816136f9565b9050919050565b7f646f63746f7220646f6573206e6f742065786973747300000000000000000000600082015250565b60006137726016836133fa565b915061377d8261373c565b602082019050919050565b600060208201905081810360008301526137a181613765565b9050919050565b7f4e487b7100000000000000000000000000000000000000000000000000000000600052603260045260246000fd5b7f6e6f7420617574686f72697a656420746f206163636573732070617469656e7460008201527f7320646174610000000000000000000000000000000000000000000000000000602082015250565b60006138336026836133fa565b915061383e826137d7565b604082019050919050565b6000602082019050818103600083015261386281613826565b9050919050565b7f70617469656e7420646f6573206e6f7420657869737473000000000000000000600082015250565b600061389f6017836133fa565b91506138aa82613869565b602082019050919050565b600060208201905081810360008301526138ce81613892565b9050919050565b7f4e487b7100000000000000000000000000000000000000000000000000000000600052602260045260246000fd5b6000600282049050600182168061391c57607f821691505b60208210810361392f5761392e6138d5565b5b50919050565b7f416363657373206e6f74206772616e7465640000000000000000000000000000600082015250565b600061396b6012836133fa565b915061397682613935565b602082019050919050565b6000602082019050818103600083015261399a8161395e565b9050919050565b60008190508160005260206000209050919050565b60006020601f8301049050919050565b600082821b905092915050565b600060088302613a037fffffffffffffffffffffffffffffffffffffffffffffffffffffffffffffffff826139c6565b613a0d86836139c6565b95508019841693508086168417925050509392505050565b6000819050919050565b6000819050919050565b6000613a54613a4f613a4a84613a25565b613a2f565b613a25565b9050919050565b6000819050919050565b613a6e83613a39565b613a82613a7a82613a5b565b8484546139d3565b825550505050565b600090565b613a97613a8a565b613aa2818484613a65565b505050565b5b81811015613ac657613abb600082613a8f565b600181019050613aa8565b5050565b601f821115613b0b57613adc816139a1565b613ae5846139b6565b81016020851015613af4578190505b613b08613b00856139b6565b830182613aa7565b50505b505050565b600082821c905092915050565b6000613b2e60001984600802613b10565b1980831691505092915050565b6000613b478383613b1d565b9150826002028217905092915050565b613b6082613121565b67ffffffffffffffff811115613b7957613b78613273565b5b613b838254613904565b613b8e828285613aca565b600060209050601f831160018114613bc15760008415613baf578287015190505b613bb98582613b3b565b865550613c21565b601f198416613bcf866139a1565b60005b82811015613bf757848901518255600182019150602085019450602081019050613bd2565b86831015613c145784890151613c10601f891682613b1d565b8355505b6001600288020188555050505b505050505050565b613c328161308a565b82525050565b6000604082019050613c4d6000830185613c29565b8181036020830152613c5f818461340b565b90509392505050565b7f446f63746f7220646f6573206e6f742065786973740000000000000000000000600082015250565b6000613c9e6015836133fa565b9150613ca982613c68565b602082019050919050565b60006020820190508181036000830152613ccd81613c91565b9050919050565b60006020820190508181036000830152613cee818461340b565b905092915050565b7f50617469656e7420646f6573206e6f7420657869737400000000000000000000600082015250565b6000613d2c6016836133fa565b9150613d3782613cf6565b602082019050919050565b60006020820190508181036000830152613d5b81613d1f565b9050919050565b7f4e6f7420617574686f72697a656420746f206163636573732070617469656e7460008201527f2064617461000000000000000000000000000000000000000000000000000000602082015250565b6000613dbe6025836133fa565b9150613dc982613d62565b604082019050919050565b60006020820190508181036000830152613ded81613db1565b9050919050565b7f4e6f206163636573730000000000000000000000000000000000000000000000600082015250565b6000613e2a6009836133fa565b9150613e3582613df4565b602082019050919050565b60006020820190508181036000830152613e5981613e1d565b9050919050565b7f4e487b7100000000000000000000000000000000000000000000000000000000600052601160045260246000fd5b6000613e9a82613a25565b91507fffffffffffffffffffffffffffffffffffffffffffffffffffffffffffffffff8203613ecc57613ecb613e60565b5b600182019050919050565b7f446f63746f7220646f6573206e6f742065786973747300000000000000000000600082015250565b6000613f0d6016836133fa565b9150613f1882613ed7565b602082019050919050565b60006020820190508181036000830152613f3c81613f00565b9050919050565b7f646f63746f7220616c7265616479207265676973746572656400000000000000600082015250565b6000613f796019836133fa565b9150613f8482613f43565b602082019050919050565b60006020820190508181036000830152613fa881613f6c565b9050919050565b7f616c726561647920726567697374657265642061732070617469656e74000000600082015250565b6000613fe5601d836133fa565b9150613ff082613faf565b602082019050919050565b6000602082019050818103600083015261401481613fd8565b9050919050565b600061402682613a25565b915061403183613a25565b925082820390508181111561404957614048613e60565b5b92915050565b7f4e487b7100000000000000000000000000000000000000000000000000000000600052603160045260246000fd5b7f50617469656e7420616c72656164792072656769737465726564000000000000600082015250565b60006140b4601a836133fa565b91506140bf8261407e565b602082019050919050565b600060208201905081810360008301526140e3816140a7565b9050919050565b7f616c7265616479207265676973746572656420617320646f63746f7200000000600082015250565b6000614120601c836133fa565b915061412b826140ea565b602082019050919050565b6000602082019050818103600083015261414f81614113565b9050919050565b7f6f6e6c79207265676973746572656420646f63746f7273000000000000000000600082015250565b600061418c6017836133fa565b915061419782614156565b602082019050919050565b600060208201905081810360008301526141bb8161417f565b9050919050565b7f4f6e6c7920646f63746f722063616e206163636573732074686569722070617460008201527f69656e74206c6973740000000000000000000000000000000000000000000000602082015250565b600061421e6029836133fa565b9150614229826141c2565b604082019050919050565b6000602082019050818103600083015261424d81614211565b9050919050565b7f416363657373206e6f74206772616e7465642062792070617469656e74000000600082015250565b600061428a601d836133fa565b915061429582614254565b602082019050919050565b600060208201905081810360008301526142b98161427d565b905091905056fea26469706673582212208b76fd7ae8bc4de3cc6edb5dbce34aba0359b8212f4360226bd19efb4a42387464736f6c634300081c0033",
  "linkReferences": {},
  "deployedLinkReferences": {}
}