{
  "_format": "hh-sol-artifact-1",
  "contractName": "EHR",
  "sourceName": "contracts/EHR.sol",
  "abi": [
    {
      "anonymous": false,
      "inputs": [
        {
          "indexed": true,
          "internalType": "address",
          "name": "patientAddress",
          "type": "address"
        },
        {
          "indexed": true,
          "internalType": "address",
          "name": "doctorAddress",
          "type": "address"
        }
      ],
      "name": "AccessGranted",
      "type": "event"
    },
    {
      "anonymous": false,
      "inputs": [
        {
          "indexed": true,
          "internalType": "address",
          "name": "patientAddress",
          "type": "address"
        },
        {
          "indexed": true,
          "internalType": "address",
          "name": "doctorAddress",
          "type": "address"
        }
      ],
      "name": "AccessRevoked",
      "type": "event"
    },
    {
      "anonymous": false,
      "inputs": [
        {
          "indexed": true,
          "internalType": "address",
          "name": "patientAddress",
          "type": "address"
        },
        {
          "indexed": true,
          "internalType": "address",
          "name": "doctorAddress",
          "type": "address"
        },
        {
          "indexed": false,
          "internalType": "address",
          "name": "sender",
          "type": "address"
        },
        {
          "indexed": false,
          "internalType": "string",
          "name": "ipfsHash",
          "type": "string"
        }
      ],
      "name": "ChatMessageSent",
      "type": "event"
    },
    {
      "anonymous": false,
      "inputs": [
        {
          "indexed": true,
          "internalType": "address",
          "name": "doctorAddress",
          "type": "address"
        }
      ],
      "name": "DoctorRegistered",
      "type": "event"
    },
    {
      "anonymous": false,
      "inputs": [
        {
          "indexed": true,
          "internalType": "address",
          "name": "labAddress",
          "type": "address"
        }
      ],
      "name": "LabRegistered",
      "type": "event"
    },
    {
      "anonymous": false,
      "inputs": [
        {
          "indexed": false,
          "internalType": "address",
          "name": "patient",
          "type": "address"
        },
        {
          "indexed": false,
          "internalType": "address",
          "name": "doctor",
          "type": "address"
        },
        {
          "indexed": false,
          "internalType": "address",
          "name": "lab",
          "type": "address"
        },
        {
          "indexed": false,
          "internalType": "uint256",
          "name": "requestId",
          "type": "uint256"
        },
        {
          "indexed": false,
          "internalType": "string",
          "name": "description",
          "type": "string"
        },
        {
          "indexed": false,
          "internalType": "string",
          "name": "reportIPFShash",
          "type": "string"
        }
      ],
      "name": "LabReportUploaded",
      "type": "event"
    },
    {
      "anonymous": false,
      "inputs": [
        {
          "indexed": true,
          "internalType": "uint256",
          "name": "requestId",
          "type": "uint256"
        },
        {
          "indexed": false,
          "internalType": "address",
          "name": "patient",
          "type": "address"
        }
      ],
      "name": "LabRequestApproved",
      "type": "event"
    },
    {
      "anonymous": false,
      "inputs": [
        {
          "indexed": true,
          "internalType": "uint256",
          "name": "requestId",
          "type": "uint256"
        },
        {
          "indexed": false,
          "internalType": "address",
          "name": "doctor",
          "type": "address"
        },
        {
          "indexed": false,
          "internalType": "address",
          "name": "patient",
          "type": "address"
        },
        {
          "indexed": false,
          "internalType": "address",
          "name": "lab",
          "type": "address"
        },
        {
          "indexed": false,
          "internalType": "string",
          "name": "description",
          "type": "string"
        },
        {
          "indexed": false,
          "internalType": "string",
          "name": "requestIPFShash",
          "type": "string"
        }
      ],
      "name": "LabTestRequested",
      "type": "event"
    },
    {
      "anonymous": false,
      "inputs": [
        {
          "indexed": true,
          "internalType": "address",
          "name": "patientAddress",
          "type": "address"
        },
        {
          "indexed": false,
          "internalType": "string",
          "name": "ipfsHash",
          "type": "string"
        }
      ],
      "name": "MedicalRecordAdded",
      "type": "event"
    },
    {
      "anonymous": false,
      "inputs": [
        {
          "indexed": true,
          "internalType": "address",
          "name": "patientAddress",
          "type": "address"
        }
      ],
      "name": "PatientRegistered",
      "type": "event"
    },
    {
      "inputs": [
        {
          "internalType": "address",
          "name": "patientAddress",
          "type": "address"
        },
        {
          "internalType": "string",
          "name": "ipfshash",
          "type": "string"
        }
      ],
      "name": "addMedicalRecord",
      "outputs": [],
      "stateMutability": "nonpayable",
      "type": "function"
    },
    {
      "inputs": [
        {
          "internalType": "uint256",
          "name": "requestId",
          "type": "uint256"
        }
      ],
      "name": "approveLabRequest",
      "outputs": [],
      "stateMutability": "nonpayable",
      "type": "function"
    },
    {
      "inputs": [
        {
          "internalType": "address",
          "name": "doctorAddress",
          "type": "address"
        }
      ],
      "name": "getChat",
      "outputs": [
        {
          "internalType": "string[]",
          "name": "",
          "type": "string[]"
        }
      ],
      "stateMutability": "view",
      "type": "function"
    },
    {
      "inputs": [
        {
          "internalType": "address",
          "name": "patientAddress",
          "type": "address"
        }
      ],
      "name": "getChatWithPatient",
      "outputs": [
        {
          "internalType": "string[]",
          "name": "",
          "type": "string[]"
        }
      ],
      "stateMutability": "view",
      "type": "function"
    },
    {
      "inputs": [
        {
          "internalType": "address",
          "name": "doctorAddress",
          "type": "address"
        }
      ],
      "name": "getDoctorPatients",
      "outputs": [
        {
          "internalType": "address[]",
          "name": "",
          "type": "address[]"
        }
      ],
      "stateMutability": "view",
      "type": "function"
    },
    {
      "inputs": [
        {
          "internalType": "address",
          "name": "labAddress",
          "type": "address"
        }
      ],
      "name": "getLabPatients",
      "outputs": [
        {
          "internalType": "address[]",
          "name": "",
          "type": "address[]"
        }
      ],
      "stateMutability": "view",
      "type": "function"
    },
    {
      "inputs": [
        {
          "internalType": "uint256",
          "name": "requestId",
          "type": "uint256"
        }
      ],
      "name": "getLabReport",
      "outputs": [
        {
          "components": [
            {
              "internalType": "string",
              "name": "description",
              "type": "string"
            },
            {
              "internalType": "string",
              "name": "reportIPFShash",
              "type": "string"
            },
            {
              "internalType": "bool",
              "name": "exists",
              "type": "bool"
            }
          ],
          "internalType": "struct EHR.LabReport",
          "name": "",
          "type": "tuple"
        }
      ],
      "stateMutability": "view",
      "type": "function"
    },
    {
      "inputs": [
        {
          "internalType": "uint256",
          "name": "requestId",
          "type": "uint256"
        }
      ],
      "name": "getLabRequest",
      "outputs": [
        {
          "components": [
            {
              "internalType": "address",
              "name": "doctor",
              "type": "address"
            },
            {
              "internalType": "address",
              "name": "patient",
              "type": "address"
            },
            {
              "internalType": "address",
              "name": "lab",
              "type": "address"
            },
            {
              "internalType": "string",
              "name": "requestDescription",
              "type": "string"
            },
            {
              "internalType": "string",
              "name": "requestIPFShash",
              "type": "string"
            },
            {
              "internalType": "bool",
              "name": "approved",
              "type": "bool"
            },
            {
              "internalType": "bool",
              "name": "exists",
              "type": "bool"
            }
          ],
          "internalType": "struct EHR.LabRequest",
          "name": "",
          "type": "tuple"
        }
      ],
      "stateMutability": "view",
      "type": "function"
    },
    {
      "inputs": [
        {
          "internalType": "address",
          "name": "patientAddress",
          "type": "address"
        }
      ],
      "name": "getPatientRecords",
      "outputs": [
        {
          "internalType": "string[]",
          "name": "",
          "type": "string[]"
        }
      ],
      "stateMutability": "view",
      "type": "function"
    },
    {
      "inputs": [
        {
          "internalType": "address",
          "name": "doctorAddress",
          "type": "address"
        }
      ],
      "name": "grantAccess",
      "outputs": [],
      "stateMutability": "nonpayable",
      "type": "function"
    },
    {
      "inputs": [
        {
          "internalType": "string",
          "name": "_dataIPFShash",
          "type": "string"
        },
        {
          "internalType": "string",
          "name": "_specialization",
          "type": "string"
        }
      ],
      "name": "registerDoctor",
      "outputs": [],
      "stateMutability": "nonpayable",
      "type": "function"
    },
    {
      "inputs": [
        {
          "internalType": "string",
          "name": "_dataIPFShash",
          "type": "string"
        },
        {
          "internalType": "string",
          "name": "_specialization",
          "type": "string"
        }
      ],
      "name": "registerLab",
      "outputs": [],
      "stateMutability": "nonpayable",
      "type": "function"
    },
    {
      "inputs": [
        {
          "internalType": "string",
          "name": "_dataIPFShash",
          "type": "string"
        }
      ],
      "name": "registerPatient",
      "outputs": [],
      "stateMutability": "nonpayable",
      "type": "function"
    },
    {
      "inputs": [
        {
          "internalType": "address",
          "name": "patientAddr",
          "type": "address"
        },
        {
          "internalType": "address",
          "name": "labAddr",
          "type": "address"
        },
        {
          "internalType": "string",
          "name": "description",
          "type": "string"
        },
        {
          "internalType": "string",
          "name": "requestIPFShash",
          "type": "string"
        }
      ],
      "name": "requestLabTest",
      "outputs": [
        {
          "internalType": "uint256",
          "name": "",
          "type": "uint256"
        }
      ],
      "stateMutability": "nonpayable",
      "type": "function"
    },
    {
      "inputs": [
        {
          "internalType": "address",
          "name": "doctorAddress",
          "type": "address"
        }
      ],
      "name": "revokeAccess",
      "outputs": [],
      "stateMutability": "nonpayable",
      "type": "function"
    },
    {
      "inputs": [
        {
          "internalType": "address",
          "name": "doctorAddress",
          "type": "address"
        },
        {
          "internalType": "string",
          "name": "ipfsHash",
          "type": "string"
        }
      ],
      "name": "sendMessageToDoctor",
      "outputs": [],
      "stateMutability": "nonpayable",
      "type": "function"
    },
    {
      "inputs": [
        {
          "internalType": "address",
          "name": "patientAddress",
          "type": "address"
        },
        {
          "internalType": "string",
          "name": "ipfsHash",
          "type": "string"
        }
      ],
      "name": "sendMessageToPatient",
      "outputs": [],
      "stateMutability": "nonpayable",
      "type": "function"
    },
    {
      "inputs": [
        {
          "internalType": "uint256",
          "name": "requestId",
          "type": "uint256"
        },
        {
          "internalType": "string",
          "name": "description",
          "type": "string"
        },
        {
          "internalType": "string",
          "name": "reportIPFShash",
          "type": "string"
        }
      ],
      "name": "uploadLabReport",
      "outputs": [],
      "stateMutability": "nonpayable",
      "type": "function"
    }
  ],
  "bytecode": "0x6080604052348015600f57600080fd5b50614e018061001f6000396000f3fe608060405234801561001057600080fd5b50600436106101165760003560e01c8063833b46bb116100a257806388184a641161007157806388184a64146102eb578063ba5084671461031b578063c3d52c9c1461034b578063dfb47e031461037b578063f20648db1461039757610116565b8063833b46bb1461026757806383fa1e061461028357806385e68531146102b3578063869c9eaf146102cf57610116565b8063268e4ddb116100e9578063268e4ddb146101b35780632c0ef760146101cf5780632ca662c7146101ff5780632efcb62f1461021b5780633a9b131c1461024b57610116565b80630ae5e7391461011b5780630eeea7ba14610137578063145187a91461016757806318bd484714610183575b600080fd5b61013560048036038101906101309190613841565b6103b3565b005b610151600480360381019061014c91906139b4565b610787565b60405161015e9190613a6c565b60405180910390f35b610181600480360381019061017c9190613ab3565b610c3b565b005b61019d60048036038101906101989190613841565b610e3a565b6040516101aa9190613c21565b60405180910390f35b6101cd60048036038101906101c89190613c43565b611057565b005b6101e960048036038101906101e49190613ab3565b6112ca565b6040516101f69190613d11565b60405180910390f35b61021960048036038101906102149190613d33565b611436565b005b61023560048036038101906102309190613841565b6116dd565b6040516102429190613c21565b60405180910390f35b61026560048036038101906102609190613c43565b61198b565b005b610281600480360381019061027c9190613d33565b611b54565b005b61029d60048036038101906102989190613ab3565b611dfb565b6040516102aa9190613e5d565b60405180910390f35b6102cd60048036038101906102c89190613841565b612084565b005b6102e960048036038101906102e49190613e7f565b612623565b005b61030560048036038101906103009190613841565b6128b6565b6040516103129190613c21565b60405180910390f35b61033560048036038101906103309190613841565b612b65565b6040516103429190613f77565b60405180910390f35b61036560048036038101906103609190613841565b612cc4565b6040516103729190613f77565b60405180910390f35b61039560048036038101906103909190613f99565b612e23565b005b6103b160048036038101906103ac9190613c43565b613413565b005b6000803373ffffffffffffffffffffffffffffffffffffffff1673ffffffffffffffffffffffffffffffffffffffff16815260200190815260200160002060030160009054906101000a900460ff16610441576040517f08c379a000000000000000000000000000000000000000000000000000000000815260040161043890614081565b60405180910390fd5b600160008273ffffffffffffffffffffffffffffffffffffffff1673ffffffffffffffffffffffffffffffffffffffff16815260200190815260200160002060030160009054906101000a900460ff166104d0576040517f08c379a00000000000000000000000000000000000000000000000000000000081526004016104c7906140ed565b60405180910390fd5b60016000803373ffffffffffffffffffffffffffffffffffffffff1673ffffffffffffffffffffffffffffffffffffffff16815260200190815260200160002060020160008373ffffffffffffffffffffffffffffffffffffffff1673ffffffffffffffffffffffffffffffffffffffff16815260200190815260200160002060006101000a81548160ff0219169083151502179055506000805b600160008473ffffffffffffffffffffffffffffffffffffffff1673ffffffffffffffffffffffffffffffffffffffff1681526020019081526020016000206002018054905081101561067f573373ffffffffffffffffffffffffffffffffffffffff16600160008573ffffffffffffffffffffffffffffffffffffffff1673ffffffffffffffffffffffffffffffffffffffff16815260200190815260200160002060020182815481106106235761062261410d565b5b9060005260206000200160009054906101000a900473ffffffffffffffffffffffffffffffffffffffff1673ffffffffffffffffffffffffffffffffffffffff1603610672576001915061067f565b808060010191505061056b565b508061072957600160008373ffffffffffffffffffffffffffffffffffffffff1673ffffffffffffffffffffffffffffffffffffffff168152602001908152602001600020600201339080600181540180825580915050600190039060005260206000200160009091909190916101000a81548173ffffffffffffffffffffffffffffffffffffffff021916908373ffffffffffffffffffffffffffffffffffffffff1602179055505b8173ffffffffffffffffffffffffffffffffffffffff163373ffffffffffffffffffffffffffffffffffffffff167f9f520b3bfc56d06f7065d10b4683b3f57ac8895d5026cd176dee95ce1454cb8d60405160405180910390a35050565b6000600160003373ffffffffffffffffffffffffffffffffffffffff1673ffffffffffffffffffffffffffffffffffffffff16815260200190815260200160002060030160009054906101000a900460ff16610818576040517f08c379a000000000000000000000000000000000000000000000000000000000815260040161080f90614188565b60405180910390fd5b6000808673ffffffffffffffffffffffffffffffffffffffff1673ffffffffffffffffffffffffffffffffffffffff16815260200190815260200160002060030160009054906101000a900460ff166108a6576040517f08c379a000000000000000000000000000000000000000000000000000000000815260040161089d906141f4565b60405180910390fd5b600260008573ffffffffffffffffffffffffffffffffffffffff1673ffffffffffffffffffffffffffffffffffffffff16815260200190815260200160002060030160009054906101000a900460ff16610935576040517f08c379a000000000000000000000000000000000000000000000000000000000815260040161092c90614260565b60405180910390fd5b6000808673ffffffffffffffffffffffffffffffffffffffff1673ffffffffffffffffffffffffffffffffffffffff16815260200190815260200160002060020160003373ffffffffffffffffffffffffffffffffffffffff1673ffffffffffffffffffffffffffffffffffffffff16815260200190815260200160002060009054906101000a900460ff16610a00576040517f08c379a00000000000000000000000000000000000000000000000000000000081526004016109f7906142f2565b60405180910390fd5b60096000815480929190610a1390614341565b91905055506040518060e001604052803373ffffffffffffffffffffffffffffffffffffffff1681526020018673ffffffffffffffffffffffffffffffffffffffff1681526020018573ffffffffffffffffffffffffffffffffffffffff1681526020018481526020018381526020016000151581526020016001151581525060046000600954815260200190815260200160002060008201518160000160006101000a81548173ffffffffffffffffffffffffffffffffffffffff021916908373ffffffffffffffffffffffffffffffffffffffff16021790555060208201518160010160006101000a81548173ffffffffffffffffffffffffffffffffffffffff021916908373ffffffffffffffffffffffffffffffffffffffff16021790555060408201518160020160006101000a81548173ffffffffffffffffffffffffffffffffffffffff021916908373ffffffffffffffffffffffffffffffffffffffff1602179055506060820151816003019081610b929190614595565b506080820151816004019081610ba89190614595565b5060a08201518160050160006101000a81548160ff02191690831515021790555060c08201518160050160016101000a81548160ff0219169083151502179055509050506009547f6f9706362b5db6e6505eb65c0889a26a3c71632cfc460b88a3209268974104de3387878787604051610c269594939291906146af565b60405180910390a26009549050949350505050565b6000803373ffffffffffffffffffffffffffffffffffffffff1673ffffffffffffffffffffffffffffffffffffffff16815260200190815260200160002060030160009054906101000a900460ff16610cc9576040517f08c379a0000000000000000000000000000000000000000000000000000000008152600401610cc090614081565b60405180910390fd5b6004600082815260200190815260200160002060050160019054906101000a900460ff16610d2c576040517f08c379a0000000000000000000000000000000000000000000000000000000008152600401610d239061475c565b60405180910390fd5b3373ffffffffffffffffffffffffffffffffffffffff166004600083815260200190815260200160002060010160009054906101000a900473ffffffffffffffffffffffffffffffffffffffff1673ffffffffffffffffffffffffffffffffffffffff1614610dd0576040517f08c379a0000000000000000000000000000000000000000000000000000000008152600401610dc7906147c8565b60405180910390fd5b60016004600083815260200190815260200160002060050160006101000a81548160ff021916908315150217905550807fb84ea773928630d022b12f28e97bc999f6da0c7f70b014ef9097365aedc76bed33604051610e2f91906147e8565b60405180910390a250565b6060818073ffffffffffffffffffffffffffffffffffffffff163373ffffffffffffffffffffffffffffffffffffffff161480610eff57506000808273ffffffffffffffffffffffffffffffffffffffff1673ffffffffffffffffffffffffffffffffffffffff16815260200190815260200160002060020160003373ffffffffffffffffffffffffffffffffffffffff1673ffffffffffffffffffffffffffffffffffffffff16815260200190815260200160002060009054906101000a900460ff165b610f3e576040517f08c379a0000000000000000000000000000000000000000000000000000000008152600401610f359061484f565b60405180910390fd5b6000808473ffffffffffffffffffffffffffffffffffffffff1673ffffffffffffffffffffffffffffffffffffffff168152602001908152602001600020600101805480602002602001604051908101604052809291908181526020016000905b8282101561104b578382906000526020600020018054610fbe906143b8565b80601f0160208091040260200160405190810160405280929190818152602001828054610fea906143b8565b80156110375780601f1061100c57610100808354040283529160200191611037565b820191906000526020600020905b81548152906001019060200180831161101a57829003601f168201915b505050505081526020019060010190610f9f565b50505050915050919050565b6000803373ffffffffffffffffffffffffffffffffffffffff1673ffffffffffffffffffffffffffffffffffffffff16815260200190815260200160002060030160009054906101000a900460ff166110e5576040517f08c379a00000000000000000000000000000000000000000000000000000000081526004016110dc90614081565b60405180910390fd5b6000803373ffffffffffffffffffffffffffffffffffffffff1673ffffffffffffffffffffffffffffffffffffffff16815260200190815260200160002060020160008373ffffffffffffffffffffffffffffffffffffffff1673ffffffffffffffffffffffffffffffffffffffff16815260200190815260200160002060009054906101000a900460ff166111b0576040517f08c379a00000000000000000000000000000000000000000000000000000000081526004016111a7906148bb565b60405180910390fd5b600360003373ffffffffffffffffffffffffffffffffffffffff1673ffffffffffffffffffffffffffffffffffffffff16815260200190815260200160002060008373ffffffffffffffffffffffffffffffffffffffff1673ffffffffffffffffffffffffffffffffffffffff1681526020019081526020016000208190806001815401808255809150506001900390600052602060002001600090919091909150908161125e9190614595565b508173ffffffffffffffffffffffffffffffffffffffff163373ffffffffffffffffffffffffffffffffffffffff167fd42533516035ff61eeff65eacd819a258171887c53829d4aa3ea5a52d021c04133846040516112be9291906148db565b60405180910390a35050565b6112d2613687565b60056000838152602001908152602001600020604051806060016040529081600082018054611300906143b8565b80601f016020809104026020016040519081016040528092919081815260200182805461132c906143b8565b80156113795780601f1061134e57610100808354040283529160200191611379565b820191906000526020600020905b81548152906001019060200180831161135c57829003601f168201915b50505050508152602001600182018054611392906143b8565b80601f01602080910402602001604051908101604052809291908181526020018280546113be906143b8565b801561140b5780601f106113e05761010080835404028352916020019161140b565b820191906000526020600020905b8154815290600101906020018083116113ee57829003601f168201915b505050505081526020016002820160009054906101000a900460ff1615151515815250509050919050565b600260003373ffffffffffffffffffffffffffffffffffffffff1673ffffffffffffffffffffffffffffffffffffffff16815260200190815260200160002060030160009054906101000a900460ff16156114c6576040517f08c379a00000000000000000000000000000000000000000000000000000000081526004016114bd90614957565b60405180910390fd5b6000803373ffffffffffffffffffffffffffffffffffffffff1673ffffffffffffffffffffffffffffffffffffffff16815260200190815260200160002060030160009054906101000a900460ff1615801561156f5750600160003373ffffffffffffffffffffffffffffffffffffffff1673ffffffffffffffffffffffffffffffffffffffff16815260200190815260200160002060030160009054906101000a900460ff16155b6115ae576040517f08c379a00000000000000000000000000000000000000000000000000000000081526004016115a5906149c3565b60405180910390fd5b6000600260003373ffffffffffffffffffffffffffffffffffffffff1673ffffffffffffffffffffffffffffffffffffffff1681526020019081526020016000209050828160000190816116029190614595565b50818160010190816116149190614595565b5060018160030160006101000a81548160ff0219169083151502179055506008339080600181540180825580915050600190039060005260206000200160009091909190916101000a81548173ffffffffffffffffffffffffffffffffffffffff021916908373ffffffffffffffffffffffffffffffffffffffff1602179055503373ffffffffffffffffffffffffffffffffffffffff167f9655eb0d5b8ee39174a9558f17a200ad668397528296feff485c06541672162860405160405180910390a2505050565b60606000803373ffffffffffffffffffffffffffffffffffffffff1673ffffffffffffffffffffffffffffffffffffffff16815260200190815260200160002060030160009054906101000a900460ff1661176d576040517f08c379a000000000000000000000000000000000000000000000000000000000815260040161176490614081565b60405180910390fd5b6000803373ffffffffffffffffffffffffffffffffffffffff1673ffffffffffffffffffffffffffffffffffffffff16815260200190815260200160002060020160008373ffffffffffffffffffffffffffffffffffffffff1673ffffffffffffffffffffffffffffffffffffffff16815260200190815260200160002060009054906101000a900460ff16611838576040517f08c379a000000000000000000000000000000000000000000000000000000000815260040161182f906148bb565b60405180910390fd5b600360003373ffffffffffffffffffffffffffffffffffffffff1673ffffffffffffffffffffffffffffffffffffffff16815260200190815260200160002060008373ffffffffffffffffffffffffffffffffffffffff1673ffffffffffffffffffffffffffffffffffffffff168152602001908152602001600020805480602002602001604051908101604052809291908181526020016000905b828210156119805783829060005260206000200180546118f3906143b8565b80601f016020809104026020016040519081016040528092919081815260200182805461191f906143b8565b801561196c5780601f106119415761010080835404028352916020019161196c565b820191906000526020600020905b81548152906001019060200180831161194f57829003601f168201915b5050505050815260200190600101906118d4565b505050509050919050565b818073ffffffffffffffffffffffffffffffffffffffff163373ffffffffffffffffffffffffffffffffffffffff161480611a4e57506000808273ffffffffffffffffffffffffffffffffffffffff1673ffffffffffffffffffffffffffffffffffffffff16815260200190815260200160002060020160003373ffffffffffffffffffffffffffffffffffffffff1673ffffffffffffffffffffffffffffffffffffffff16815260200190815260200160002060009054906101000a900460ff165b611a8d576040517f08c379a0000000000000000000000000000000000000000000000000000000008152600401611a849061484f565b60405180910390fd5b6000808473ffffffffffffffffffffffffffffffffffffffff1673ffffffffffffffffffffffffffffffffffffffff16815260200190815260200160002060010182908060018154018082558091505060019003906000526020600020016000909190919091509081611b009190614595565b508273ffffffffffffffffffffffffffffffffffffffff167f381664328a13775cdca4159b54873d48827358a58c62dac10944c743ecb7ad9b83604051611b4791906149e3565b60405180910390a2505050565b600160003373ffffffffffffffffffffffffffffffffffffffff1673ffffffffffffffffffffffffffffffffffffffff16815260200190815260200160002060030160009054906101000a900460ff1615611be4576040517f08c379a0000000000000000000000000000000000000000000000000000000008152600401611bdb90614957565b60405180910390fd5b6000803373ffffffffffffffffffffffffffffffffffffffff1673ffffffffffffffffffffffffffffffffffffffff16815260200190815260200160002060030160009054906101000a900460ff16158015611c8d5750600260003373ffffffffffffffffffffffffffffffffffffffff1673ffffffffffffffffffffffffffffffffffffffff16815260200190815260200160002060030160009054906101000a900460ff16155b611ccc576040517f08c379a0000000000000000000000000000000000000000000000000000000008152600401611cc390614a51565b60405180910390fd5b6000600160003373ffffffffffffffffffffffffffffffffffffffff1673ffffffffffffffffffffffffffffffffffffffff168152602001908152602001600020905082816000019081611d209190614595565b5081816001019081611d329190614595565b5060018160030160006101000a81548160ff0219169083151502179055506007339080600181540180825580915050600190039060005260206000200160009091909190916101000a81548173ffffffffffffffffffffffffffffffffffffffff021916908373ffffffffffffffffffffffffffffffffffffffff1602179055503373ffffffffffffffffffffffffffffffffffffffff167f2dc8105a7545248d0e354c4c6b02fb583071cc719fb4bef1ca74d72d475570bc60405160405180910390a2505050565b611e036136aa565b600460008381526020019081526020016000206040518060e00160405290816000820160009054906101000a900473ffffffffffffffffffffffffffffffffffffffff1673ffffffffffffffffffffffffffffffffffffffff1673ffffffffffffffffffffffffffffffffffffffff1681526020016001820160009054906101000a900473ffffffffffffffffffffffffffffffffffffffff1673ffffffffffffffffffffffffffffffffffffffff1673ffffffffffffffffffffffffffffffffffffffff1681526020016002820160009054906101000a900473ffffffffffffffffffffffffffffffffffffffff1673ffffffffffffffffffffffffffffffffffffffff1673ffffffffffffffffffffffffffffffffffffffff168152602001600382018054611f33906143b8565b80601f0160208091040260200160405190810160405280929190818152602001828054611f5f906143b8565b8015611fac5780601f10611f8157610100808354040283529160200191611fac565b820191906000526020600020905b815481529060010190602001808311611f8f57829003601f168201915b50505050508152602001600482018054611fc5906143b8565b80601f0160208091040260200160405190810160405280929190818152602001828054611ff1906143b8565b801561203e5780601f106120135761010080835404028352916020019161203e565b820191906000526020600020905b81548152906001019060200180831161202157829003601f168201915b505050505081526020016005820160009054906101000a900460ff161515151581526020016005820160019054906101000a900460ff1615151515815250509050919050565b6000803373ffffffffffffffffffffffffffffffffffffffff1673ffffffffffffffffffffffffffffffffffffffff16815260200190815260200160002060030160009054906101000a900460ff16612112576040517f08c379a000000000000000000000000000000000000000000000000000000000815260040161210990614081565b60405180910390fd5b600160008273ffffffffffffffffffffffffffffffffffffffff1673ffffffffffffffffffffffffffffffffffffffff16815260200190815260200160002060030160009054906101000a900460ff166121a1576040517f08c379a0000000000000000000000000000000000000000000000000000000008152600401612198906140ed565b60405180910390fd5b60008060003373ffffffffffffffffffffffffffffffffffffffff1673ffffffffffffffffffffffffffffffffffffffff16815260200190815260200160002060020160008373ffffffffffffffffffffffffffffffffffffffff1673ffffffffffffffffffffffffffffffffffffffff16815260200190815260200160002060006101000a81548160ff02191690831515021790555060005b600160008373ffffffffffffffffffffffffffffffffffffffff1673ffffffffffffffffffffffffffffffffffffffff1681526020019081526020016000206002018054905081101561253d573373ffffffffffffffffffffffffffffffffffffffff16600160008473ffffffffffffffffffffffffffffffffffffffff1673ffffffffffffffffffffffffffffffffffffffff16815260200190815260200160002060020182815481106122f3576122f261410d565b5b9060005260206000200160009054906101000a900473ffffffffffffffffffffffffffffffffffffffff1673ffffffffffffffffffffffffffffffffffffffff160361253057600160008373ffffffffffffffffffffffffffffffffffffffff1673ffffffffffffffffffffffffffffffffffffffff16815260200190815260200160002060020160018060008573ffffffffffffffffffffffffffffffffffffffff1673ffffffffffffffffffffffffffffffffffffffff168152602001908152602001600020600201805490506123cc9190614a71565b815481106123dd576123dc61410d565b5b9060005260206000200160009054906101000a900473ffffffffffffffffffffffffffffffffffffffff16600160008473ffffffffffffffffffffffffffffffffffffffff1673ffffffffffffffffffffffffffffffffffffffff168152602001908152602001600020600201828154811061245c5761245b61410d565b5b9060005260206000200160006101000a81548173ffffffffffffffffffffffffffffffffffffffff021916908373ffffffffffffffffffffffffffffffffffffffff160217905550600160008373ffffffffffffffffffffffffffffffffffffffff1673ffffffffffffffffffffffffffffffffffffffff1681526020019081526020016000206002018054806124f6576124f5614aa5565b5b6001900381819060005260206000200160006101000a81549073ffffffffffffffffffffffffffffffffffffffff0219169055905561253d565b808060010191505061223b565b50600360003373ffffffffffffffffffffffffffffffffffffffff1673ffffffffffffffffffffffffffffffffffffffff16815260200190815260200160002060008273ffffffffffffffffffffffffffffffffffffffff1673ffffffffffffffffffffffffffffffffffffffff16815260200190815260200160002060006125c6919061372d565b8073ffffffffffffffffffffffffffffffffffffffff163373ffffffffffffffffffffffffffffffffffffffff167f825c8be24eb0df19500f63e86c29e7d0d951e73056b889b891d85e40938d9b6e60405160405180910390a350565b6000803373ffffffffffffffffffffffffffffffffffffffff1673ffffffffffffffffffffffffffffffffffffffff16815260200190815260200160002060030160009054906101000a900460ff16156126b2576040517f08c379a00000000000000000000000000000000000000000000000000000000081526004016126a990614957565b60405180910390fd5b600160003373ffffffffffffffffffffffffffffffffffffffff1673ffffffffffffffffffffffffffffffffffffffff16815260200190815260200160002060030160009054906101000a900460ff1615801561275c5750600260003373ffffffffffffffffffffffffffffffffffffffff1673ffffffffffffffffffffffffffffffffffffffff16815260200190815260200160002060030160009054906101000a900460ff16155b61279b576040517f08c379a000000000000000000000000000000000000000000000000000000000815260040161279290614b20565b60405180910390fd5b60008060003373ffffffffffffffffffffffffffffffffffffffff1673ffffffffffffffffffffffffffffffffffffffff1681526020019081526020016000209050818160000190816127ee9190614595565b5060018160030160006101000a81548160ff0219169083151502179055506006339080600181540180825580915050600190039060005260206000200160009091909190916101000a81548173ffffffffffffffffffffffffffffffffffffffff021916908373ffffffffffffffffffffffffffffffffffffffff1602179055503373ffffffffffffffffffffffffffffffffffffffff167fc9fa2003fca4ce0dfc8cb0deae32266b715536df6685365b05b5be96ede8e49c60405160405180910390a25050565b6060600160003373ffffffffffffffffffffffffffffffffffffffff1673ffffffffffffffffffffffffffffffffffffffff16815260200190815260200160002060030160009054906101000a900460ff16612947576040517f08c379a000000000000000000000000000000000000000000000000000000000815260040161293e90614188565b60405180910390fd5b6000808373ffffffffffffffffffffffffffffffffffffffff1673ffffffffffffffffffffffffffffffffffffffff16815260200190815260200160002060020160003373ffffffffffffffffffffffffffffffffffffffff1673ffffffffffffffffffffffffffffffffffffffff16815260200190815260200160002060009054906101000a900460ff16612a12576040517f08c379a0000000000000000000000000000000000000000000000000000000008152600401612a09906148bb565b60405180910390fd5b600360008373ffffffffffffffffffffffffffffffffffffffff1673ffffffffffffffffffffffffffffffffffffffff16815260200190815260200160002060003373ffffffffffffffffffffffffffffffffffffffff1673ffffffffffffffffffffffffffffffffffffffff168152602001908152602001600020805480602002602001604051908101604052809291908181526020016000905b82821015612b5a578382906000526020600020018054612acd906143b8565b80601f0160208091040260200160405190810160405280929190818152602001828054612af9906143b8565b8015612b465780601f10612b1b57610100808354040283529160200191612b46565b820191906000526020600020905b815481529060010190602001808311612b2957829003601f168201915b505050505081526020019060010190612aae565b505050509050919050565b6060600160003373ffffffffffffffffffffffffffffffffffffffff1673ffffffffffffffffffffffffffffffffffffffff16815260200190815260200160002060030160009054906101000a900460ff16612bf6576040517f08c379a0000000000000000000000000000000000000000000000000000000008152600401612bed90614188565b60405180910390fd5b600160008373ffffffffffffffffffffffffffffffffffffffff1673ffffffffffffffffffffffffffffffffffffffff168152602001908152602001600020600201805480602002602001604051908101604052809291908181526020018280548015612cb857602002820191906000526020600020905b8160009054906101000a900473ffffffffffffffffffffffffffffffffffffffff1673ffffffffffffffffffffffffffffffffffffffff1681526020019060010190808311612c6e575b50505050509050919050565b6060600260003373ffffffffffffffffffffffffffffffffffffffff1673ffffffffffffffffffffffffffffffffffffffff16815260200190815260200160002060030160009054906101000a900460ff16612d55576040517f08c379a0000000000000000000000000000000000000000000000000000000008152600401612d4c90614b8c565b60405180910390fd5b600260008373ffffffffffffffffffffffffffffffffffffffff1673ffffffffffffffffffffffffffffffffffffffff168152602001908152602001600020600201805480602002602001604051908101604052809291908181526020018280548015612e1757602002820191906000526020600020905b8160009054906101000a900473ffffffffffffffffffffffffffffffffffffffff1673ffffffffffffffffffffffffffffffffffffffff1681526020019060010190808311612dcd575b50505050509050919050565b600260003373ffffffffffffffffffffffffffffffffffffffff1673ffffffffffffffffffffffffffffffffffffffff16815260200190815260200160002060030160009054906101000a900460ff16612eb2576040517f08c379a0000000000000000000000000000000000000000000000000000000008152600401612ea990614b8c565b60405180910390fd5b60006004600085815260200190815260200160002090508060050160019054906101000a900460ff16612f1a576040517f08c379a0000000000000000000000000000000000000000000000000000000008152600401612f119061475c565b60405180910390fd5b3373ffffffffffffffffffffffffffffffffffffffff168160020160009054906101000a900473ffffffffffffffffffffffffffffffffffffffff1673ffffffffffffffffffffffffffffffffffffffff1614612fac576040517f08c379a0000000000000000000000000000000000000000000000000000000008152600401612fa390614bf8565b60405180910390fd5b8060050160009054906101000a900460ff16612ffd576040517f08c379a0000000000000000000000000000000000000000000000000000000008152600401612ff490614c64565b60405180910390fd5b6005600085815260200190815260200160002060020160009054906101000a900460ff1615613061576040517f08c379a000000000000000000000000000000000000000000000000000000000815260040161305890614cd0565b60405180910390fd5b6040518060600160405280848152602001838152602001600115158152506005600086815260200190815260200160002060008201518160000190816130a79190614595565b5060208201518160010190816130bd9190614595565b5060408201518160020160006101000a81548160ff0219169083151502179055509050506000808260010160009054906101000a900473ffffffffffffffffffffffffffffffffffffffff1673ffffffffffffffffffffffffffffffffffffffff1673ffffffffffffffffffffffffffffffffffffffff168152602001908152602001600020600101829080600181540180825580915050600190039060005260206000200160009091909190915090816131789190614595565b506000805b600260003373ffffffffffffffffffffffffffffffffffffffff1673ffffffffffffffffffffffffffffffffffffffff168152602001908152602001600020600201805490508110156132b5578260010160009054906101000a900473ffffffffffffffffffffffffffffffffffffffff1673ffffffffffffffffffffffffffffffffffffffff16600260003373ffffffffffffffffffffffffffffffffffffffff1673ffffffffffffffffffffffffffffffffffffffff16815260200190815260200160002060020182815481106132595761325861410d565b5b9060005260206000200160009054906101000a900473ffffffffffffffffffffffffffffffffffffffff1673ffffffffffffffffffffffffffffffffffffffff16036132a857600191506132b5565b808060010191505061317d565b508061338357600260003373ffffffffffffffffffffffffffffffffffffffff1673ffffffffffffffffffffffffffffffffffffffff1681526020019081526020016000206002018260010160009054906101000a900473ffffffffffffffffffffffffffffffffffffffff169080600181540180825580915050600190039060005260206000200160009091909190916101000a81548173ffffffffffffffffffffffffffffffffffffffff021916908373ffffffffffffffffffffffffffffffffffffffff1602179055505b7f08adb408f442712e17b66585cd6c91dfebf778a76179cc5e631164c0358e12698260010160009054906101000a900473ffffffffffffffffffffffffffffffffffffffff168360000160009054906101000a900473ffffffffffffffffffffffffffffffffffffffff163388888860405161340496959493929190614cf0565b60405180910390a15050505050565b600160003373ffffffffffffffffffffffffffffffffffffffff1673ffffffffffffffffffffffffffffffffffffffff16815260200190815260200160002060030160009054906101000a900460ff166134a2576040517f08c379a000000000000000000000000000000000000000000000000000000000815260040161349990614188565b60405180910390fd5b6000808373ffffffffffffffffffffffffffffffffffffffff1673ffffffffffffffffffffffffffffffffffffffff16815260200190815260200160002060020160003373ffffffffffffffffffffffffffffffffffffffff1673ffffffffffffffffffffffffffffffffffffffff16815260200190815260200160002060009054906101000a900460ff1661356d576040517f08c379a000000000000000000000000000000000000000000000000000000000815260040161356490614dab565b60405180910390fd5b600360008373ffffffffffffffffffffffffffffffffffffffff1673ffffffffffffffffffffffffffffffffffffffff16815260200190815260200160002060003373ffffffffffffffffffffffffffffffffffffffff1673ffffffffffffffffffffffffffffffffffffffff1681526020019081526020016000208190806001815401808255809150506001900390600052602060002001600090919091909150908161361b9190614595565b503373ffffffffffffffffffffffffffffffffffffffff168273ffffffffffffffffffffffffffffffffffffffff167fd42533516035ff61eeff65eacd819a258171887c53829d4aa3ea5a52d021c041338460405161367b9291906148db565b60405180910390a35050565b604051806060016040528060608152602001606081526020016000151581525090565b6040518060e00160405280600073ffffffffffffffffffffffffffffffffffffffff168152602001600073ffffffffffffffffffffffffffffffffffffffff168152602001600073ffffffffffffffffffffffffffffffffffffffff16815260200160608152602001606081526020016000151581526020016000151581525090565b508054600082559060005260206000209081019061374b919061374e565b50565b5b8082111561376e57600081816137659190613772565b5060010161374f565b5090565b50805461377e906143b8565b6000825580601f1061379057506137af565b601f0160209004906000526020600020908101906137ae91906137b2565b5b50565b5b808211156137cb5760008160009055506001016137b3565b5090565b6000604051905090565b600080fd5b600080fd5b600073ffffffffffffffffffffffffffffffffffffffff82169050919050565b600061380e826137e3565b9050919050565b61381e81613803565b811461382957600080fd5b50565b60008135905061383b81613815565b92915050565b600060208284031215613857576138566137d9565b5b60006138658482850161382c565b91505092915050565b600080fd5b600080fd5b6000601f19601f8301169050919050565b7f4e487b7100000000000000000000000000000000000000000000000000000000600052604160045260246000fd5b6138c182613878565b810181811067ffffffffffffffff821117156138e0576138df613889565b5b80604052505050565b60006138f36137cf565b90506138ff82826138b8565b919050565b600067ffffffffffffffff82111561391f5761391e613889565b5b61392882613878565b9050602081019050919050565b82818337600083830152505050565b600061395761395284613904565b6138e9565b90508281526020810184848401111561397357613972613873565b5b61397e848285613935565b509392505050565b600082601f83011261399b5761399a61386e565b5b81356139ab848260208601613944565b91505092915050565b600080600080608085870312156139ce576139cd6137d9565b5b60006139dc8782880161382c565b94505060206139ed8782880161382c565b935050604085013567ffffffffffffffff811115613a0e57613a0d6137de565b5b613a1a87828801613986565b925050606085013567ffffffffffffffff811115613a3b57613a3a6137de565b5b613a4787828801613986565b91505092959194509250565b6000819050919050565b613a6681613a53565b82525050565b6000602082019050613a816000830184613a5d565b92915050565b613a9081613a53565b8114613a9b57600080fd5b50565b600081359050613aad81613a87565b92915050565b600060208284031215613ac957613ac86137d9565b5b6000613ad784828501613a9e565b91505092915050565b600081519050919050565b600082825260208201905092915050565b6000819050602082019050919050565b600081519050919050565b600082825260208201905092915050565b60005b83811015613b46578082015181840152602081019050613b2b565b60008484015250505050565b6000613b5d82613b0c565b613b678185613b17565b9350613b77818560208601613b28565b613b8081613878565b840191505092915050565b6000613b978383613b52565b905092915050565b6000602082019050919050565b6000613bb782613ae0565b613bc18185613aeb565b935083602082028501613bd385613afc565b8060005b85811015613c0f5784840389528151613bf08582613b8b565b9450613bfb83613b9f565b925060208a01995050600181019050613bd7565b50829750879550505050505092915050565b60006020820190508181036000830152613c3b8184613bac565b905092915050565b60008060408385031215613c5a57613c596137d9565b5b6000613c688582860161382c565b925050602083013567ffffffffffffffff811115613c8957613c886137de565b5b613c9585828601613986565b9150509250929050565b60008115159050919050565b613cb481613c9f565b82525050565b60006060830160008301518482036000860152613cd78282613b52565b91505060208301518482036020860152613cf18282613b52565b9150506040830151613d066040860182613cab565b508091505092915050565b60006020820190508181036000830152613d2b8184613cba565b905092915050565b60008060408385031215613d4a57613d496137d9565b5b600083013567ffffffffffffffff811115613d6857613d676137de565b5b613d7485828601613986565b925050602083013567ffffffffffffffff811115613d9557613d946137de565b5b613da185828601613986565b9150509250929050565b613db481613803565b82525050565b600060e083016000830151613dd26000860182613dab565b506020830151613de56020860182613dab565b506040830151613df86040860182613dab565b5060608301518482036060860152613e108282613b52565b91505060808301518482036080860152613e2a8282613b52565b91505060a0830151613e3f60a0860182613cab565b5060c0830151613e5260c0860182613cab565b508091505092915050565b60006020820190508181036000830152613e778184613dba565b905092915050565b600060208284031215613e9557613e946137d9565b5b600082013567ffffffffffffffff811115613eb357613eb26137de565b5b613ebf84828501613986565b91505092915050565b600081519050919050565b600082825260208201905092915050565b6000819050602082019050919050565b6000613f008383613dab565b60208301905092915050565b6000602082019050919050565b6000613f2482613ec8565b613f2e8185613ed3565b9350613f3983613ee4565b8060005b83811015613f6a578151613f518882613ef4565b9750613f5c83613f0c565b925050600181019050613f3d565b5085935050505092915050565b60006020820190508181036000830152613f918184613f19565b905092915050565b600080600060608486031215613fb257613fb16137d9565b5b6000613fc086828701613a9e565b935050602084013567ffffffffffffffff811115613fe157613fe06137de565b5b613fed86828701613986565b925050604084013567ffffffffffffffff81111561400e5761400d6137de565b5b61401a86828701613986565b9150509250925092565b600082825260208201905092915050565b7f4f6e6c792070617469656e7420616c6c6f776564000000000000000000000000600082015250565b600061406b601483614024565b915061407682614035565b602082019050919050565b6000602082019050818103600083015261409a8161405e565b9050919050565b7f446f63746f7220646f6573206e6f742065786973740000000000000000000000600082015250565b60006140d7601583614024565b91506140e2826140a1565b602082019050919050565b60006020820190508181036000830152614106816140ca565b9050919050565b7f4e487b7100000000000000000000000000000000000000000000000000000000600052603260045260246000fd5b7f4f6e6c7920646f63746f7220616c6c6f77656400000000000000000000000000600082015250565b6000614172601383614024565b915061417d8261413c565b602082019050919050565b600060208201905081810360008301526141a181614165565b9050919050565b7f50617469656e7420646f6573206e6f7420657869737400000000000000000000600082015250565b60006141de601683614024565b91506141e9826141a8565b602082019050919050565b6000602082019050818103600083015261420d816141d1565b9050919050565b7f4c616220646f6573206e6f742065786973740000000000000000000000000000600082015250565b600061424a601283614024565b915061425582614214565b602082019050919050565b600060208201905081810360008301526142798161423d565b9050919050565b7f446f63746f72206e6f7420617574686f72697a656420666f722074686973207060008201527f617469656e740000000000000000000000000000000000000000000000000000602082015250565b60006142dc602683614024565b91506142e782614280565b604082019050919050565b6000602082019050818103600083015261430b816142cf565b9050919050565b7f4e487b7100000000000000000000000000000000000000000000000000000000600052601160045260246000fd5b600061434c82613a53565b91507fffffffffffffffffffffffffffffffffffffffffffffffffffffffffffffffff820361437e5761437d614312565b5b600182019050919050565b7f4e487b7100000000000000000000000000000000000000000000000000000000600052602260045260246000fd5b600060028204905060018216806143d057607f821691505b6020821081036143e3576143e2614389565b5b50919050565b60008190508160005260206000209050919050565b60006020601f8301049050919050565b600082821b905092915050565b60006008830261444b7fffffffffffffffffffffffffffffffffffffffffffffffffffffffffffffffff8261440e565b614455868361440e565b95508019841693508086168417925050509392505050565b6000819050919050565b600061449261448d61448884613a53565b61446d565b613a53565b9050919050565b6000819050919050565b6144ac83614477565b6144c06144b882614499565b84845461441b565b825550505050565b600090565b6144d56144c8565b6144e08184846144a3565b505050565b5b81811015614504576144f96000826144cd565b6001810190506144e6565b5050565b601f8211156145495761451a816143e9565b614523846143fe565b81016020851015614532578190505b61454661453e856143fe565b8301826144e5565b50505b505050565b600082821c905092915050565b600061456c6000198460080261454e565b1980831691505092915050565b6000614585838361455b565b9150826002028217905092915050565b61459e82613b0c565b67ffffffffffffffff8111156145b7576145b6613889565b5b6145c182546143b8565b6145cc828285614508565b600060209050601f8311600181146145ff57600084156145ed578287015190505b6145f78582614579565b86555061465f565b601f19841661460d866143e9565b60005b8281101561463557848901518255600182019150602085019450602081019050614610565b86831015614652578489015161464e601f89168261455b565b8355505b6001600288020188555050505b505050505050565b61467081613803565b82525050565b600061468182613b0c565b61468b8185614024565b935061469b818560208601613b28565b6146a481613878565b840191505092915050565b600060a0820190506146c46000830188614667565b6146d16020830187614667565b6146de6040830186614667565b81810360608301526146f08185614676565b905081810360808301526147048184614676565b90509695505050505050565b7f5265717565737420646f6573206e6f7420657869737400000000000000000000600082015250565b6000614746601683614024565b915061475182614710565b602082019050919050565b6000602082019050818103600083015261477581614739565b9050919050565b7f4e6f7420796f7572207265717565737400000000000000000000000000000000600082015250565b60006147b2601083614024565b91506147bd8261477c565b602082019050919050565b600060208201905081810360008301526147e1816147a5565b9050919050565b60006020820190506147fd6000830184614667565b92915050565b7f4e6f7420617574686f72697a6564000000000000000000000000000000000000600082015250565b6000614839600e83614024565b915061484482614803565b602082019050919050565b600060208201905081810360008301526148688161482c565b9050919050565b7f416363657373206e6f74206772616e7465640000000000000000000000000000600082015250565b60006148a5601283614024565b91506148b08261486f565b602082019050919050565b600060208201905081810360008301526148d481614898565b9050919050565b60006040820190506148f06000830185614667565b81810360208301526149028184614676565b90509392505050565b7f416c726561647920726567697374657265640000000000000000000000000000600082015250565b6000614941601283614024565b915061494c8261490b565b602082019050919050565b6000602082019050818103600083015261497081614934565b9050919050565b7f43616e6e6f74207265676973746572206173206c616200000000000000000000600082015250565b60006149ad601683614024565b91506149b882614977565b602082019050919050565b600060208201905081810360008301526149dc816149a0565b9050919050565b600060208201905081810360008301526149fd8184614676565b905092915050565b7f43616e6e6f7420726567697374657220617320646f63746f7200000000000000600082015250565b6000614a3b601983614024565b9150614a4682614a05565b602082019050919050565b60006020820190508181036000830152614a6a81614a2e565b9050919050565b6000614a7c82613a53565b9150614a8783613a53565b9250828203905081811115614a9f57614a9e614312565b5b92915050565b7f4e487b7100000000000000000000000000000000000000000000000000000000600052603160045260246000fd5b7f43616e6e6f742072656769737465722061732070617469656e74000000000000600082015250565b6000614b0a601a83614024565b9150614b1582614ad4565b602082019050919050565b60006020820190508181036000830152614b3981614afd565b9050919050565b7f4f6e6c79206c616220616c6c6f77656400000000000000000000000000000000600082015250565b6000614b76601083614024565b9150614b8182614b40565b602082019050919050565b60006020820190508181036000830152614ba581614b69565b9050919050565b7f4e6f7420796f75722061737369676e6564206c61620000000000000000000000600082015250565b6000614be2601583614024565b9150614bed82614bac565b602082019050919050565b60006020820190508181036000830152614c1181614bd5565b9050919050565b7f52657175657374206e6f7420617070726f766564000000000000000000000000600082015250565b6000614c4e601483614024565b9150614c5982614c18565b602082019050919050565b60006020820190508181036000830152614c7d81614c41565b9050919050565b7f5265706f727420616c72656164792075706c6f61646564000000000000000000600082015250565b6000614cba601783614024565b9150614cc582614c84565b602082019050919050565b60006020820190508181036000830152614ce981614cad565b9050919050565b600060c082019050614d056000830189614667565b614d126020830188614667565b614d1f6040830187614667565b614d2c6060830186613a5d565b8181036080830152614d3e8185614676565b905081810360a0830152614d528184614676565b9050979650505050505050565b7f416363657373206e6f74206772616e7465642062792070617469656e74000000600082015250565b6000614d95601d83614024565b9150614da082614d5f565b602082019050919050565b60006020820190508181036000830152614dc481614d88565b905091905056fea2646970667358221220130297824415e9a06bfd8b37b96e705549414db508330b2771fd4b5abc68336264736f6c634300081c0033",
  "linkReferences": {},
  "deployedLinkReferences": {}
}